{
  "contractName": "EmployeeInfo",
  "abi": [
    {
      "inputs": [
        {
          "internalType": "uint256",
          "name": "",
          "type": "uint256"
        }
      ],
      "name": "allEndorestments",
      "outputs": [
        {
          "internalType": "string",
          "name": "endoresid",
          "type": "string"
        },
        {
          "internalType": "string",
          "name": "email",
          "type": "string"
        },
        {
          "internalType": "string",
          "name": "endorest",
          "type": "string"
        },
        {
          "internalType": "string",
          "name": "desc",
          "type": "string"
        },
        {
          "internalType": "string",
          "name": "score",
          "type": "string"
        },
        {
          "internalType": "string",
          "name": "status",
          "type": "string"
        },
        {
          "internalType": "string",
          "name": "hasupdated",
          "type": "string"
        },
        {
          "internalType": "string",
          "name": "requestdate",
          "type": "string"
        }
      ],
      "stateMutability": "view",
      "type": "function",
      "constant": true
    },
    {
      "inputs": [
        {
          "internalType": "string",
          "name": "",
          "type": "string"
        }
      ],
      "name": "employees",
      "outputs": [
        {
          "components": [
            {
              "internalType": "string",
              "name": "firstName",
              "type": "string"
            },
            {
              "internalType": "string",
              "name": "lastName",
              "type": "string"
            },
            {
              "internalType": "string",
              "name": "email",
              "type": "string"
            },
            {
              "internalType": "string",
              "name": "phone",
              "type": "string"
            },
            {
              "internalType": "string",
              "name": "employeeAddress",
              "type": "string"
            },
            {
              "internalType": "string",
              "name": "filename",
              "type": "string"
            }
          ],
          "internalType": "struct EmployeeInfo.EmployeeBasicInfo",
          "name": "basicInfo",
          "type": "tuple"
        },
        {
          "components": [
            {
              "internalType": "string",
              "name": "email",
              "type": "string"
            },
            {
              "internalType": "string",
              "name": "organizationName",
              "type": "string"
            },
            {
              "internalType": "string",
              "name": "designation",
              "type": "string"
            },
            {
              "internalType": "string",
              "name": "responsibility",
              "type": "string"
            },
            {
              "internalType": "uint256",
              "name": "salary",
              "type": "uint256"
            },
            {
              "internalType": "string",
              "name": "officeCity",
              "type": "string"
            },
            {
              "internalType": "uint256",
              "name": "totalExperience",
              "type": "uint256"
            },
            {
              "internalType": "string",
              "name": "skill",
              "type": "string"
            }
          ],
          "internalType": "struct EmployeeInfo.EmployeeWorkingInfo",
          "name": "workingInfo",
          "type": "tuple"
        },
        {
          "components": [
            {
              "internalType": "string",
              "name": "email",
              "type": "string"
            },
            {
              "internalType": "string",
              "name": "collegeName",
              "type": "string"
            },
            {
              "internalType": "string",
              "name": "course",
              "type": "string"
            },
            {
              "internalType": "uint256",
              "name": "score",
              "type": "uint256"
            },
            {
              "internalType": "string",
              "name": "university",
              "type": "string"
            },
            {
              "internalType": "string",
              "name": "collegeCity",
              "type": "string"
            },
            {
              "internalType": "uint256",
              "name": "year",
              "type": "uint256"
            }
          ],
          "internalType": "struct EmployeeInfo.EmployeeAcademicInfo",
          "name": "academicInfo",
          "type": "tuple"
        },
        {
          "components": [
            {
              "internalType": "string",
              "name": "endoresid",
              "type": "string"
            },
            {
              "internalType": "string",
              "name": "email",
              "type": "string"
            },
            {
              "internalType": "string",
              "name": "endorest",
              "type": "string"
            },
            {
              "internalType": "string",
              "name": "desc",
              "type": "string"
            },
            {
              "internalType": "string",
              "name": "score",
              "type": "string"
            },
            {
              "internalType": "string",
              "name": "status",
              "type": "string"
            },
            {
              "internalType": "string",
              "name": "hasupdated",
              "type": "string"
            },
            {
              "internalType": "string",
              "name": "requestdate",
              "type": "string"
            }
          ],
          "internalType": "struct EmployeeInfo.EmployeeEndorestInfo",
          "name": "endorestInfo",
          "type": "tuple"
        }
      ],
      "stateMutability": "view",
      "type": "function",
      "constant": true
    },
    {
      "inputs": [
        {
          "internalType": "string",
          "name": "_firstName",
          "type": "string"
        },
        {
          "internalType": "string",
          "name": "_lastName",
          "type": "string"
        },
        {
          "internalType": "string",
          "name": "_email",
          "type": "string"
        },
        {
          "internalType": "string",
          "name": "_phone",
          "type": "string"
        },
        {
          "internalType": "string",
          "name": "_employeeAddress",
          "type": "string"
        },
        {
          "internalType": "string",
          "name": "_filename",
          "type": "string"
        }
      ],
      "name": "setBasicInfo",
      "outputs": [],
      "stateMutability": "nonpayable",
      "type": "function"
    },
    {
      "inputs": [
        {
          "internalType": "string",
          "name": "_email",
          "type": "string"
        },
        {
          "internalType": "string",
          "name": "_organizationName",
          "type": "string"
        },
        {
          "internalType": "string",
          "name": "_designation",
          "type": "string"
        },
        {
          "internalType": "string",
          "name": "_responsibility",
          "type": "string"
        },
        {
          "internalType": "uint256",
          "name": "_salary",
          "type": "uint256"
        },
        {
          "internalType": "string",
          "name": "_officeCity",
          "type": "string"
        },
        {
          "internalType": "uint256",
          "name": "_totalExperience",
          "type": "uint256"
        },
        {
          "internalType": "string",
          "name": "_skill",
          "type": "string"
        }
      ],
      "name": "setWorkingInfo",
      "outputs": [],
      "stateMutability": "nonpayable",
      "type": "function"
    },
    {
      "inputs": [
        {
          "internalType": "string",
          "name": "_email",
          "type": "string"
        },
        {
          "internalType": "string",
          "name": "_collegeName",
          "type": "string"
        },
        {
          "internalType": "string",
          "name": "_course",
          "type": "string"
        },
        {
          "internalType": "uint256",
          "name": "_score",
          "type": "uint256"
        },
        {
          "internalType": "string",
          "name": "_university",
          "type": "string"
        },
        {
          "internalType": "string",
          "name": "_collegeCity",
          "type": "string"
        },
        {
          "internalType": "uint256",
          "name": "_year",
          "type": "uint256"
        }
      ],
      "name": "setAcademicInfo",
      "outputs": [],
      "stateMutability": "nonpayable",
      "type": "function"
    },
    {
      "inputs": [
        {
          "internalType": "string",
          "name": "email",
          "type": "string"
        },
        {
          "internalType": "string",
          "name": "title",
          "type": "string"
        },
        {
          "internalType": "string",
          "name": "document_id",
          "type": "string"
        },
        {
          "internalType": "string",
          "name": "file_name",
          "type": "string"
        },
        {
          "internalType": "string",
          "name": "file_url",
          "type": "string"
        },
        {
          "internalType": "string",
          "name": "json_data",
          "type": "string"
        },
        {
          "internalType": "string",
          "name": "verified_by",
          "type": "string"
        }
      ],
      "name": "addDocument",
      "outputs": [],
      "stateMutability": "nonpayable",
      "type": "function"
    },
    {
      "inputs": [
        {
          "internalType": "string",
          "name": "_email",
          "type": "string"
        }
      ],
      "name": "getProofInfoByEmail",
      "outputs": [
        {
          "components": [
            {
              "internalType": "string",
              "name": "title",
              "type": "string"
            },
            {
              "internalType": "string",
              "name": "document_id",
              "type": "string"
            },
            {
              "internalType": "string",
              "name": "file_name",
              "type": "string"
            },
            {
              "internalType": "string",
              "name": "file_url",
              "type": "string"
            },
            {
              "internalType": "string",
              "name": "json_data",
              "type": "string"
            },
            {
              "internalType": "string",
              "name": "verified_by",
              "type": "string"
            },
            {
              "internalType": "bool",
              "name": "isVerified",
              "type": "bool"
            }
          ],
          "internalType": "struct EmployeeInfo.EmployeeDocument[]",
          "name": "",
          "type": "tuple[]"
        }
      ],
      "stateMutability": "view",
      "type": "function",
      "constant": true
    },
    {
      "inputs": [
        {
          "internalType": "string",
          "name": "_email",
          "type": "string"
        }
      ],
      "name": "getBasicInfoByEmail",
      "outputs": [
        {
          "components": [
            {
              "internalType": "string",
              "name": "firstName",
              "type": "string"
            },
            {
              "internalType": "string",
              "name": "lastName",
              "type": "string"
            },
            {
              "internalType": "string",
              "name": "email",
              "type": "string"
            },
            {
              "internalType": "string",
              "name": "phone",
              "type": "string"
            },
            {
              "internalType": "string",
              "name": "employeeAddress",
              "type": "string"
            },
            {
              "internalType": "string",
              "name": "filename",
              "type": "string"
            }
          ],
          "internalType": "struct EmployeeInfo.EmployeeBasicInfo",
          "name": "",
          "type": "tuple"
        }
      ],
      "stateMutability": "view",
      "type": "function",
      "constant": true
    },
    {
      "inputs": [
        {
          "internalType": "string",
          "name": "_email",
          "type": "string"
        }
      ],
      "name": "getWorkingInfoByEmail",
      "outputs": [
        {
          "components": [
            {
              "internalType": "string",
              "name": "email",
              "type": "string"
            },
            {
              "internalType": "string",
              "name": "organizationName",
              "type": "string"
            },
            {
              "internalType": "string",
              "name": "designation",
              "type": "string"
            },
            {
              "internalType": "string",
              "name": "responsibility",
              "type": "string"
            },
            {
              "internalType": "uint256",
              "name": "salary",
              "type": "uint256"
            },
            {
              "internalType": "string",
              "name": "officeCity",
              "type": "string"
            },
            {
              "internalType": "uint256",
              "name": "totalExperience",
              "type": "uint256"
            },
            {
              "internalType": "string",
              "name": "skill",
              "type": "string"
            }
          ],
          "internalType": "struct EmployeeInfo.EmployeeWorkingInfo",
          "name": "",
          "type": "tuple"
        }
      ],
      "stateMutability": "view",
      "type": "function",
      "constant": true
    },
    {
      "inputs": [
        {
          "internalType": "string",
          "name": "_email",
          "type": "string"
        }
      ],
      "name": "getAcademicInfoByEmail",
      "outputs": [
        {
          "components": [
            {
              "internalType": "string",
              "name": "email",
              "type": "string"
            },
            {
              "internalType": "string",
              "name": "collegeName",
              "type": "string"
            },
            {
              "internalType": "string",
              "name": "course",
              "type": "string"
            },
            {
              "internalType": "uint256",
              "name": "score",
              "type": "uint256"
            },
            {
              "internalType": "string",
              "name": "university",
              "type": "string"
            },
            {
              "internalType": "string",
              "name": "collegeCity",
              "type": "string"
            },
            {
              "internalType": "uint256",
              "name": "year",
              "type": "uint256"
            }
          ],
          "internalType": "struct EmployeeInfo.EmployeeAcademicInfo",
          "name": "",
          "type": "tuple"
        }
      ],
      "stateMutability": "view",
      "type": "function",
      "constant": true
    },
    {
      "inputs": [
        {
          "internalType": "string",
          "name": "_email",
          "type": "string"
        },
        {
          "internalType": "string",
          "name": "_newSkill",
          "type": "string"
        }
      ],
      "name": "updateSkillByEmail",
      "outputs": [],
      "stateMutability": "nonpayable",
      "type": "function"
    },
    {
      "inputs": [
        {
          "internalType": "string",
          "name": "_endoresid",
          "type": "string"
        },
        {
          "internalType": "string",
          "name": "_email",
          "type": "string"
        },
        {
          "internalType": "string",
          "name": "_endorest",
          "type": "string"
        },
        {
          "internalType": "string",
          "name": "_desc",
          "type": "string"
        },
        {
          "internalType": "string",
          "name": "_score",
          "type": "string"
        },
        {
          "internalType": "string",
          "name": "_status",
          "type": "string"
        },
        {
          "internalType": "string",
          "name": "_hasupdated",
          "type": "string"
        },
        {
          "internalType": "string",
          "name": "_requestdate",
          "type": "string"
        }
      ],
      "name": "setEndorestInfo",
      "outputs": [],
      "stateMutability": "nonpayable",
      "type": "function"
    },
    {
      "inputs": [
        {
          "internalType": "string",
          "name": "_email",
          "type": "string"
        }
      ],
      "name": "getEndorestInfoByEmail",
      "outputs": [
        {
          "components": [
            {
              "internalType": "string",
              "name": "endoresid",
              "type": "string"
            },
            {
              "internalType": "string",
              "name": "email",
              "type": "string"
            },
            {
              "internalType": "string",
              "name": "endorest",
              "type": "string"
            },
            {
              "internalType": "string",
              "name": "desc",
              "type": "string"
            },
            {
              "internalType": "string",
              "name": "score",
              "type": "string"
            },
            {
              "internalType": "string",
              "name": "status",
              "type": "string"
            },
            {
              "internalType": "string",
              "name": "hasupdated",
              "type": "string"
            },
            {
              "internalType": "string",
              "name": "requestdate",
              "type": "string"
            }
          ],
          "internalType": "struct EmployeeInfo.EmployeeEndorestInfo",
          "name": "",
          "type": "tuple"
        }
      ],
      "stateMutability": "view",
      "type": "function",
      "constant": true
    },
    {
      "inputs": [],
      "name": "getAllEndorestInfo",
      "outputs": [
        {
          "components": [
            {
              "internalType": "string",
              "name": "endoresid",
              "type": "string"
            },
            {
              "internalType": "string",
              "name": "email",
              "type": "string"
            },
            {
              "internalType": "string",
              "name": "endorest",
              "type": "string"
            },
            {
              "internalType": "string",
              "name": "desc",
              "type": "string"
            },
            {
              "internalType": "string",
              "name": "score",
              "type": "string"
            },
            {
              "internalType": "string",
              "name": "status",
              "type": "string"
            },
            {
              "internalType": "string",
              "name": "hasupdated",
              "type": "string"
            },
            {
              "internalType": "string",
              "name": "requestdate",
              "type": "string"
            }
          ],
          "internalType": "struct EmployeeInfo.EmployeeEndorestInfo[]",
          "name": "",
          "type": "tuple[]"
        }
      ],
      "stateMutability": "view",
      "type": "function",
      "constant": true
    },
    {
      "inputs": [
        {
          "internalType": "string",
          "name": "_endorestid",
          "type": "string"
        }
      ],
      "name": "getEndorestInfoByEndorestId",
      "outputs": [
        {
          "components": [
            {
              "internalType": "string",
              "name": "endoresid",
              "type": "string"
            },
            {
              "internalType": "string",
              "name": "email",
              "type": "string"
            },
            {
              "internalType": "string",
              "name": "endorest",
              "type": "string"
            },
            {
              "internalType": "string",
              "name": "desc",
              "type": "string"
            },
            {
              "internalType": "string",
              "name": "score",
              "type": "string"
            },
            {
              "internalType": "string",
              "name": "status",
              "type": "string"
            },
            {
              "internalType": "string",
              "name": "hasupdated",
              "type": "string"
            },
            {
              "internalType": "string",
              "name": "requestdate",
              "type": "string"
            }
          ],
          "internalType": "struct EmployeeInfo.EmployeeEndorestInfo",
          "name": "",
          "type": "tuple"
        }
      ],
      "stateMutability": "view",
      "type": "function",
      "constant": true
    }
  ],
  "bytecode": "0x608060405234801561001057600080fd5b506151e1806100206000396000f3fe608060405234801561001057600080fd5b50600436106100f55760003560e01c80637490cc0911610097578063cbabc5b211610066578063cbabc5b214610297578063e032eb43146102c7578063eeac04a7146102fe578063f0a7352a1461032e576100f5565b80637490cc091461020e578063aedaf9d11461022c578063b4ed0b9d14610248578063c78372981461027b576100f5565b80634bafc32d116100d35780634bafc32d1461017657806359a2a630146101925780635f149f2c146101ae57806370fbd5d2146101de576100f5565b80632661df3c146100fa57806330f2378214610116578063376e758614610146575b600080fd5b610114600480360381019061010f9190614449565b61034a565b005b610130600480360381019061012b9190613e89565b61044f565b60405161013d9190614e1a565b60405180910390f35b610160600480360381019061015b9190613e89565b610778565b60405161016d9190614ebf565b60405180910390f35b610190600480360381019061018b9190614307565b610c44565b005b6101ac60048036038101906101a7919061404f565b610d6e565b005b6101c860048036038101906101c39190613e89565b610ec7565b6040516101d59190614ebf565b60405180910390f35b6101f860048036038101906101f39190613e89565b6114bd565b6040516102059190614e3c565b60405180910390f35b610216611864565b6040516102239190614d22565b60405180910390f35b61024660048036038101906102419190613f36565b611d54565b005b610262600480360381019061025d9190613e89565b611e5b565b6040516102729493929190614e5e565b60405180910390f35b61029560048036038101906102909190613eca565b612d35565b005b6102b160048036038101906102ac9190613e89565b612d72565b6040516102be9190614ee1565b60405180910390f35b6102e160048036038101906102dc919061455f565b61312e565b6040516102f5989796959493929190614d44565b60405180910390f35b61031860048036038101906103139190613e89565b6135c6565b6040516103259190614d00565b60405180910390f35b61034860048036038101906103439190614195565b6139cd565b005b6040518060e001604052808881526020018781526020018681526020018581526020018481526020018381526020018281525060008860405161038d9190614cd2565b9081526020016040518091039020600e0160008201518160000190805190602001906103ba929190613c6c565b5060208201518160010190805190602001906103d7929190613c6c565b5060408201518160020190805190602001906103f4929190613c6c565b5060608201518160030155608082015181600401908051906020019061041b929190613c6c565b5060a0820151816005019080519060200190610438929190613c6c565b5060c0820151816006015590505050505050505050565b610457613cf2565b6000826040516104679190614cd2565b9081526020016040518091039020600e016040518060e00160405290816000820180546104939061507b565b80601f01602080910402602001604051908101604052809291908181526020018280546104bf9061507b565b801561050c5780601f106104e15761010080835404028352916020019161050c565b820191906000526020600020905b8154815290600101906020018083116104ef57829003601f168201915b505050505081526020016001820180546105259061507b565b80601f01602080910402602001604051908101604052809291908181526020018280546105519061507b565b801561059e5780601f106105735761010080835404028352916020019161059e565b820191906000526020600020905b81548152906001019060200180831161058157829003601f168201915b505050505081526020016002820180546105b79061507b565b80601f01602080910402602001604051908101604052809291908181526020018280546105e39061507b565b80156106305780601f1061060557610100808354040283529160200191610630565b820191906000526020600020905b81548152906001019060200180831161061357829003601f168201915b50505050508152602001600382015481526020016004820180546106539061507b565b80601f016020809104026020016040519081016040528092919081815260200182805461067f9061507b565b80156106cc5780601f106106a1576101008083540402835291602001916106cc565b820191906000526020600020905b8154815290600101906020018083116106af57829003601f168201915b505050505081526020016005820180546106e59061507b565b80601f01602080910402602001604051908101604052809291908181526020018280546107119061507b565b801561075e5780601f106107335761010080835404028352916020019161075e565b820191906000526020600020905b81548152906001019060200180831161074157829003601f168201915b505050505081526020016006820154815250509050919050565b610780613d2f565b6000826040516107909190614cd2565b9081526020016040518091039020601601604051806101000160405290816000820180546107bd9061507b565b80601f01602080910402602001604051908101604052809291908181526020018280546107e99061507b565b80156108365780601f1061080b57610100808354040283529160200191610836565b820191906000526020600020905b81548152906001019060200180831161081957829003601f168201915b5050505050815260200160018201805461084f9061507b565b80601f016020809104026020016040519081016040528092919081815260200182805461087b9061507b565b80156108c85780601f1061089d576101008083540402835291602001916108c8565b820191906000526020600020905b8154815290600101906020018083116108ab57829003601f168201915b505050505081526020016002820180546108e19061507b565b80601f016020809104026020016040519081016040528092919081815260200182805461090d9061507b565b801561095a5780601f1061092f5761010080835404028352916020019161095a565b820191906000526020600020905b81548152906001019060200180831161093d57829003601f168201915b505050505081526020016003820180546109739061507b565b80601f016020809104026020016040519081016040528092919081815260200182805461099f9061507b565b80156109ec5780601f106109c1576101008083540402835291602001916109ec565b820191906000526020600020905b8154815290600101906020018083116109cf57829003601f168201915b50505050508152602001600482018054610a059061507b565b80601f0160208091040260200160405190810160405280929190818152602001828054610a319061507b565b8015610a7e5780601f10610a5357610100808354040283529160200191610a7e565b820191906000526020600020905b815481529060010190602001808311610a6157829003601f168201915b50505050508152602001600582018054610a979061507b565b80601f0160208091040260200160405190810160405280929190818152602001828054610ac39061507b565b8015610b105780601f10610ae557610100808354040283529160200191610b10565b820191906000526020600020905b815481529060010190602001808311610af357829003601f168201915b50505050508152602001600682018054610b299061507b565b80601f0160208091040260200160405190810160405280929190818152602001828054610b559061507b565b8015610ba25780601f10610b7757610100808354040283529160200191610ba2565b820191906000526020600020905b815481529060010190602001808311610b8557829003601f168201915b50505050508152602001600782018054610bbb9061507b565b80601f0160208091040260200160405190810160405280929190818152602001828054610be79061507b565b8015610c345780601f10610c0957610100808354040283529160200191610c34565b820191906000526020600020905b815481529060010190602001808311610c1757829003601f168201915b5050505050815250509050919050565b60405180610100016040528089815260200188815260200187815260200186815260200185815260200184815260200183815260200182815250600089604051610c8e9190614cd2565b90815260200160405180910390206006016000820151816000019080519060200190610cbb929190613c6c565b506020820151816001019080519060200190610cd8929190613c6c565b506040820151816002019080519060200190610cf5929190613c6c565b506060820151816003019080519060200190610d12929190613c6c565b506080820151816004015560a0820151816005019080519060200190610d39929190613c6c565b5060c0820151816006015560e0820151816007019080519060200190610d60929190613c6c565b509050505050505050505050565b600087604051610d7e9190614cd2565b90815260200160405180910390206015016040518060e001604052808881526020018781526020018681526020018581526020018481526020018381526020016001151581525090806001815401808255809150506001900390600052602060002090600702016000909190919091506000820151816000019080519060200190610e0a929190613c6c565b506020820151816001019080519060200190610e27929190613c6c565b506040820151816002019080519060200190610e44929190613c6c565b506060820151816003019080519060200190610e61929190613c6c565b506080820151816004019080519060200190610e7e929190613c6c565b5060a0820151816005019080519060200190610e9b929190613c6c565b5060c08201518160060160006101000a81548160ff021916908315150217905550505050505050505050565b610ecf613d2f565b60005b60018054905081101561147c5782604051602001610ef09190614cd2565b6040516020818303038152906040528051906020012060018281548110610f40577f4e487b7100000000000000000000000000000000000000000000000000000000600052603260045260246000fd5b9060005260206000209060080201600001604051602001610f619190614ce9565b6040516020818303038152906040528051906020012014156114695760018181548110610fb7577f4e487b7100000000000000000000000000000000000000000000000000000000600052603260045260246000fd5b906000526020600020906008020160405180610100016040529081600082018054610fe19061507b565b80601f016020809104026020016040519081016040528092919081815260200182805461100d9061507b565b801561105a5780601f1061102f5761010080835404028352916020019161105a565b820191906000526020600020905b81548152906001019060200180831161103d57829003601f168201915b505050505081526020016001820180546110739061507b565b80601f016020809104026020016040519081016040528092919081815260200182805461109f9061507b565b80156110ec5780601f106110c1576101008083540402835291602001916110ec565b820191906000526020600020905b8154815290600101906020018083116110cf57829003601f168201915b505050505081526020016002820180546111059061507b565b80601f01602080910402602001604051908101604052809291908181526020018280546111319061507b565b801561117e5780601f106111535761010080835404028352916020019161117e565b820191906000526020600020905b81548152906001019060200180831161116157829003601f168201915b505050505081526020016003820180546111979061507b565b80601f01602080910402602001604051908101604052809291908181526020018280546111c39061507b565b80156112105780601f106111e557610100808354040283529160200191611210565b820191906000526020600020905b8154815290600101906020018083116111f357829003601f168201915b505050505081526020016004820180546112299061507b565b80601f01602080910402602001604051908101604052809291908181526020018280546112559061507b565b80156112a25780601f10611277576101008083540402835291602001916112a2565b820191906000526020600020905b81548152906001019060200180831161128557829003601f168201915b505050505081526020016005820180546112bb9061507b565b80601f01602080910402602001604051908101604052809291908181526020018280546112e79061507b565b80156113345780601f1061130957610100808354040283529160200191611334565b820191906000526020600020905b81548152906001019060200180831161131757829003601f168201915b5050505050815260200160068201805461134d9061507b565b80601f01602080910402602001604051908101604052809291908181526020018280546113799061507b565b80156113c65780601f1061139b576101008083540402835291602001916113c6565b820191906000526020600020905b8154815290600101906020018083116113a957829003601f168201915b505050505081526020016007820180546113df9061507b565b80601f016020809104026020016040519081016040528092919081815260200182805461140b9061507b565b80156114585780601f1061142d57610100808354040283529160200191611458565b820191906000526020600020905b81548152906001019060200180831161143b57829003601f168201915b5050505050815250509150506114b8565b8080611474906150ad565b915050610ed2565b506040517f08c379a00000000000000000000000000000000000000000000000000000000081526004016114af90614dfa565b60405180910390fd5b919050565b6114c5613d74565b6000826040516114d59190614cd2565b90815260200160405180910390206000016040518060c00160405290816000820180546115019061507b565b80601f016020809104026020016040519081016040528092919081815260200182805461152d9061507b565b801561157a5780601f1061154f5761010080835404028352916020019161157a565b820191906000526020600020905b81548152906001019060200180831161155d57829003601f168201915b505050505081526020016001820180546115939061507b565b80601f01602080910402602001604051908101604052809291908181526020018280546115bf9061507b565b801561160c5780601f106115e15761010080835404028352916020019161160c565b820191906000526020600020905b8154815290600101906020018083116115ef57829003601f168201915b505050505081526020016002820180546116259061507b565b80601f01602080910402602001604051908101604052809291908181526020018280546116519061507b565b801561169e5780601f106116735761010080835404028352916020019161169e565b820191906000526020600020905b81548152906001019060200180831161168157829003601f168201915b505050505081526020016003820180546116b79061507b565b80601f01602080910402602001604051908101604052809291908181526020018280546116e39061507b565b80156117305780601f1061170557610100808354040283529160200191611730565b820191906000526020600020905b81548152906001019060200180831161171357829003601f168201915b505050505081526020016004820180546117499061507b565b80601f01602080910402602001604051908101604052809291908181526020018280546117759061507b565b80156117c25780601f10611797576101008083540402835291602001916117c2565b820191906000526020600020905b8154815290600101906020018083116117a557829003601f168201915b505050505081526020016005820180546117db9061507b565b80601f01602080910402602001604051908101604052809291908181526020018280546118079061507b565b80156118545780601f1061182957610100808354040283529160200191611854565b820191906000526020600020905b81548152906001019060200180831161183757829003601f168201915b5050505050815250509050919050565b60606001805480602002602001604051908101604052809291908181526020016000905b82821015611d4b5783829060005260206000209060080201604051806101000160405290816000820180546118bc9061507b565b80601f01602080910402602001604051908101604052809291908181526020018280546118e89061507b565b80156119355780601f1061190a57610100808354040283529160200191611935565b820191906000526020600020905b81548152906001019060200180831161191857829003601f168201915b5050505050815260200160018201805461194e9061507b565b80601f016020809104026020016040519081016040528092919081815260200182805461197a9061507b565b80156119c75780601f1061199c576101008083540402835291602001916119c7565b820191906000526020600020905b8154815290600101906020018083116119aa57829003601f168201915b505050505081526020016002820180546119e09061507b565b80601f0160208091040260200160405190810160405280929190818152602001828054611a0c9061507b565b8015611a595780601f10611a2e57610100808354040283529160200191611a59565b820191906000526020600020905b815481529060010190602001808311611a3c57829003601f168201915b50505050508152602001600382018054611a729061507b565b80601f0160208091040260200160405190810160405280929190818152602001828054611a9e9061507b565b8015611aeb5780601f10611ac057610100808354040283529160200191611aeb565b820191906000526020600020905b815481529060010190602001808311611ace57829003601f168201915b50505050508152602001600482018054611b049061507b565b80601f0160208091040260200160405190810160405280929190818152602001828054611b309061507b565b8015611b7d5780601f10611b5257610100808354040283529160200191611b7d565b820191906000526020600020905b815481529060010190602001808311611b6057829003601f168201915b50505050508152602001600582018054611b969061507b565b80601f0160208091040260200160405190810160405280929190818152602001828054611bc29061507b565b8015611c0f5780601f10611be457610100808354040283529160200191611c0f565b820191906000526020600020905b815481529060010190602001808311611bf257829003601f168201915b50505050508152602001600682018054611c289061507b565b80601f0160208091040260200160405190810160405280929190818152602001828054611c549061507b565b8015611ca15780601f10611c7657610100808354040283529160200191611ca1565b820191906000526020600020905b815481529060010190602001808311611c8457829003601f168201915b50505050508152602001600782018054611cba9061507b565b80601f0160208091040260200160405190810160405280929190818152602001828054611ce69061507b565b8015611d335780601f10611d0857610100808354040283529160200191611d33565b820191906000526020600020905b815481529060010190602001808311611d1657829003601f168201915b50505050508152505081526020019060010190611888565b50505050905090565b6040518060c0016040528087815260200186815260200185815260200184815260200183815260200182815250600085604051611d919190614cd2565b90815260200160405180910390206000016000820151816000019080519060200190611dbe929190613c6c565b506020820151816001019080519060200190611ddb929190613c6c565b506040820151816002019080519060200190611df8929190613c6c565b506060820151816003019080519060200190611e15929190613c6c565b506080820151816004019080519060200190611e32929190613c6c565b5060a0820151816005019080519060200190611e4f929190613c6c565b50905050505050505050565b600081805160208101820180518482526020830160208501208183528095505050505050600091509050806000016040518060c0016040529081600082018054611ea49061507b565b80601f0160208091040260200160405190810160405280929190818152602001828054611ed09061507b565b8015611f1d5780601f10611ef257610100808354040283529160200191611f1d565b820191906000526020600020905b815481529060010190602001808311611f0057829003601f168201915b50505050508152602001600182018054611f369061507b565b80601f0160208091040260200160405190810160405280929190818152602001828054611f629061507b565b8015611faf5780601f10611f8457610100808354040283529160200191611faf565b820191906000526020600020905b815481529060010190602001808311611f9257829003601f168201915b50505050508152602001600282018054611fc89061507b565b80601f0160208091040260200160405190810160405280929190818152602001828054611ff49061507b565b80156120415780601f1061201657610100808354040283529160200191612041565b820191906000526020600020905b81548152906001019060200180831161202457829003601f168201915b5050505050815260200160038201805461205a9061507b565b80601f01602080910402602001604051908101604052809291908181526020018280546120869061507b565b80156120d35780601f106120a8576101008083540402835291602001916120d3565b820191906000526020600020905b8154815290600101906020018083116120b657829003601f168201915b505050505081526020016004820180546120ec9061507b565b80601f01602080910402602001604051908101604052809291908181526020018280546121189061507b565b80156121655780601f1061213a57610100808354040283529160200191612165565b820191906000526020600020905b81548152906001019060200180831161214857829003601f168201915b5050505050815260200160058201805461217e9061507b565b80601f01602080910402602001604051908101604052809291908181526020018280546121aa9061507b565b80156121f75780601f106121cc576101008083540402835291602001916121f7565b820191906000526020600020905b8154815290600101906020018083116121da57829003601f168201915b5050505050815250509080600601604051806101000160405290816000820180546122219061507b565b80601f016020809104026020016040519081016040528092919081815260200182805461224d9061507b565b801561229a5780601f1061226f5761010080835404028352916020019161229a565b820191906000526020600020905b81548152906001019060200180831161227d57829003601f168201915b505050505081526020016001820180546122b39061507b565b80601f01602080910402602001604051908101604052809291908181526020018280546122df9061507b565b801561232c5780601f106123015761010080835404028352916020019161232c565b820191906000526020600020905b81548152906001019060200180831161230f57829003601f168201915b505050505081526020016002820180546123459061507b565b80601f01602080910402602001604051908101604052809291908181526020018280546123719061507b565b80156123be5780601f10612393576101008083540402835291602001916123be565b820191906000526020600020905b8154815290600101906020018083116123a157829003601f168201915b505050505081526020016003820180546123d79061507b565b80601f01602080910402602001604051908101604052809291908181526020018280546124039061507b565b80156124505780601f1061242557610100808354040283529160200191612450565b820191906000526020600020905b81548152906001019060200180831161243357829003601f168201915b50505050508152602001600482015481526020016005820180546124739061507b565b80601f016020809104026020016040519081016040528092919081815260200182805461249f9061507b565b80156124ec5780601f106124c1576101008083540402835291602001916124ec565b820191906000526020600020905b8154815290600101906020018083116124cf57829003601f168201915b505050505081526020016006820154815260200160078201805461250f9061507b565b80601f016020809104026020016040519081016040528092919081815260200182805461253b9061507b565b80156125885780601f1061255d57610100808354040283529160200191612588565b820191906000526020600020905b81548152906001019060200180831161256b57829003601f168201915b5050505050815250509080600e016040518060e00160405290816000820180546125b19061507b565b80601f01602080910402602001604051908101604052809291908181526020018280546125dd9061507b565b801561262a5780601f106125ff5761010080835404028352916020019161262a565b820191906000526020600020905b81548152906001019060200180831161260d57829003601f168201915b505050505081526020016001820180546126439061507b565b80601f016020809104026020016040519081016040528092919081815260200182805461266f9061507b565b80156126bc5780601f10612691576101008083540402835291602001916126bc565b820191906000526020600020905b81548152906001019060200180831161269f57829003601f168201915b505050505081526020016002820180546126d59061507b565b80601f01602080910402602001604051908101604052809291908181526020018280546127019061507b565b801561274e5780601f106127235761010080835404028352916020019161274e565b820191906000526020600020905b81548152906001019060200180831161273157829003601f168201915b50505050508152602001600382015481526020016004820180546127719061507b565b80601f016020809104026020016040519081016040528092919081815260200182805461279d9061507b565b80156127ea5780601f106127bf576101008083540402835291602001916127ea565b820191906000526020600020905b8154815290600101906020018083116127cd57829003601f168201915b505050505081526020016005820180546128039061507b565b80601f016020809104026020016040519081016040528092919081815260200182805461282f9061507b565b801561287c5780601f106128515761010080835404028352916020019161287c565b820191906000526020600020905b81548152906001019060200180831161285f57829003601f168201915b505050505081526020016006820154815250509080601601604051806101000160405290816000820180546128b09061507b565b80601f01602080910402602001604051908101604052809291908181526020018280546128dc9061507b565b80156129295780601f106128fe57610100808354040283529160200191612929565b820191906000526020600020905b81548152906001019060200180831161290c57829003601f168201915b505050505081526020016001820180546129429061507b565b80601f016020809104026020016040519081016040528092919081815260200182805461296e9061507b565b80156129bb5780601f10612990576101008083540402835291602001916129bb565b820191906000526020600020905b81548152906001019060200180831161299e57829003601f168201915b505050505081526020016002820180546129d49061507b565b80601f0160208091040260200160405190810160405280929190818152602001828054612a009061507b565b8015612a4d5780601f10612a2257610100808354040283529160200191612a4d565b820191906000526020600020905b815481529060010190602001808311612a3057829003601f168201915b50505050508152602001600382018054612a669061507b565b80601f0160208091040260200160405190810160405280929190818152602001828054612a929061507b565b8015612adf5780601f10612ab457610100808354040283529160200191612adf565b820191906000526020600020905b815481529060010190602001808311612ac257829003601f168201915b50505050508152602001600482018054612af89061507b565b80601f0160208091040260200160405190810160405280929190818152602001828054612b249061507b565b8015612b715780601f10612b4657610100808354040283529160200191612b71565b820191906000526020600020905b815481529060010190602001808311612b5457829003601f168201915b50505050508152602001600582018054612b8a9061507b565b80601f0160208091040260200160405190810160405280929190818152602001828054612bb69061507b565b8015612c035780601f10612bd857610100808354040283529160200191612c03565b820191906000526020600020905b815481529060010190602001808311612be657829003601f168201915b50505050508152602001600682018054612c1c9061507b565b80601f0160208091040260200160405190810160405280929190818152602001828054612c489061507b565b8015612c955780601f10612c6a57610100808354040283529160200191612c95565b820191906000526020600020905b815481529060010190602001808311612c7857829003601f168201915b50505050508152602001600782018054612cae9061507b565b80601f0160208091040260200160405190810160405280929190818152602001828054612cda9061507b565b8015612d275780601f10612cfc57610100808354040283529160200191612d27565b820191906000526020600020905b815481529060010190602001808311612d0a57829003601f168201915b505050505081525050905084565b80600083604051612d469190614cd2565b90815260200160405180910390206006016007019080519060200190612d6d929190613c6c565b505050565b612d7a613daa565b600082604051612d8a9190614cd2565b908152602001604051809103902060060160405180610100016040529081600082018054612db79061507b565b80601f0160208091040260200160405190810160405280929190818152602001828054612de39061507b565b8015612e305780601f10612e0557610100808354040283529160200191612e30565b820191906000526020600020905b815481529060010190602001808311612e1357829003601f168201915b50505050508152602001600182018054612e499061507b565b80601f0160208091040260200160405190810160405280929190818152602001828054612e759061507b565b8015612ec25780601f10612e9757610100808354040283529160200191612ec2565b820191906000526020600020905b815481529060010190602001808311612ea557829003601f168201915b50505050508152602001600282018054612edb9061507b565b80601f0160208091040260200160405190810160405280929190818152602001828054612f079061507b565b8015612f545780601f10612f2957610100808354040283529160200191612f54565b820191906000526020600020905b815481529060010190602001808311612f3757829003601f168201915b50505050508152602001600382018054612f6d9061507b565b80601f0160208091040260200160405190810160405280929190818152602001828054612f999061507b565b8015612fe65780601f10612fbb57610100808354040283529160200191612fe6565b820191906000526020600020905b815481529060010190602001808311612fc957829003601f168201915b50505050508152602001600482015481526020016005820180546130099061507b565b80601f01602080910402602001604051908101604052809291908181526020018280546130359061507b565b80156130825780601f1061305757610100808354040283529160200191613082565b820191906000526020600020905b81548152906001019060200180831161306557829003601f168201915b50505050508152602001600682015481526020016007820180546130a59061507b565b80601f01602080910402602001604051908101604052809291908181526020018280546130d19061507b565b801561311e5780601f106130f35761010080835404028352916020019161311e565b820191906000526020600020905b81548152906001019060200180831161310157829003601f168201915b5050505050815250509050919050565b6001818154811061313e57600080fd5b90600052602060002090600802016000915090508060000180546131619061507b565b80601f016020809104026020016040519081016040528092919081815260200182805461318d9061507b565b80156131da5780601f106131af576101008083540402835291602001916131da565b820191906000526020600020905b8154815290600101906020018083116131bd57829003601f168201915b5050505050908060010180546131ef9061507b565b80601f016020809104026020016040519081016040528092919081815260200182805461321b9061507b565b80156132685780601f1061323d57610100808354040283529160200191613268565b820191906000526020600020905b81548152906001019060200180831161324b57829003601f168201915b50505050509080600201805461327d9061507b565b80601f01602080910402602001604051908101604052809291908181526020018280546132a99061507b565b80156132f65780601f106132cb576101008083540402835291602001916132f6565b820191906000526020600020905b8154815290600101906020018083116132d957829003601f168201915b50505050509080600301805461330b9061507b565b80601f01602080910402602001604051908101604052809291908181526020018280546133379061507b565b80156133845780601f1061335957610100808354040283529160200191613384565b820191906000526020600020905b81548152906001019060200180831161336757829003601f168201915b5050505050908060040180546133999061507b565b80601f01602080910402602001604051908101604052809291908181526020018280546133c59061507b565b80156134125780601f106133e757610100808354040283529160200191613412565b820191906000526020600020905b8154815290600101906020018083116133f557829003601f168201915b5050505050908060050180546134279061507b565b80601f01602080910402602001604051908101604052809291908181526020018280546134539061507b565b80156134a05780601f10613475576101008083540402835291602001916134a0565b820191906000526020600020905b81548152906001019060200180831161348357829003601f168201915b5050505050908060060180546134b59061507b565b80601f01602080910402602001604051908101604052809291908181526020018280546134e19061507b565b801561352e5780601f106135035761010080835404028352916020019161352e565b820191906000526020600020905b81548152906001019060200180831161351157829003601f168201915b5050505050908060070180546135439061507b565b80601f016020809104026020016040519081016040528092919081815260200182805461356f9061507b565b80156135bc5780601f10613591576101008083540402835291602001916135bc565b820191906000526020600020905b81548152906001019060200180831161359f57829003601f168201915b5050505050905088565b60606000826040516135d89190614cd2565b9081526020016040518091039020601501805480602002602001604051908101604052809291908181526020016000905b828210156139c257838290600052602060002090600702016040518060e001604052908160008201805461363c9061507b565b80601f01602080910402602001604051908101604052809291908181526020018280546136689061507b565b80156136b55780601f1061368a576101008083540402835291602001916136b5565b820191906000526020600020905b81548152906001019060200180831161369857829003601f168201915b505050505081526020016001820180546136ce9061507b565b80601f01602080910402602001604051908101604052809291908181526020018280546136fa9061507b565b80156137475780601f1061371c57610100808354040283529160200191613747565b820191906000526020600020905b81548152906001019060200180831161372a57829003601f168201915b505050505081526020016002820180546137609061507b565b80601f016020809104026020016040519081016040528092919081815260200182805461378c9061507b565b80156137d95780601f106137ae576101008083540402835291602001916137d9565b820191906000526020600020905b8154815290600101906020018083116137bc57829003601f168201915b505050505081526020016003820180546137f29061507b565b80601f016020809104026020016040519081016040528092919081815260200182805461381e9061507b565b801561386b5780601f106138405761010080835404028352916020019161386b565b820191906000526020600020905b81548152906001019060200180831161384e57829003601f168201915b505050505081526020016004820180546138849061507b565b80601f01602080910402602001604051908101604052809291908181526020018280546138b09061507b565b80156138fd5780601f106138d2576101008083540402835291602001916138fd565b820191906000526020600020905b8154815290600101906020018083116138e057829003601f168201915b505050505081526020016005820180546139169061507b565b80601f01602080910402602001604051908101604052809291908181526020018280546139429061507b565b801561398f5780601f106139645761010080835404028352916020019161398f565b820191906000526020600020905b81548152906001019060200180831161397257829003601f168201915b505050505081526020016006820160009054906101000a900460ff16151515158152505081526020019060010190613609565b505050509050919050565b60405180610100016040528089815260200188815260200187815260200186815260200185815260200184815260200183815260200182815250600088604051613a179190614cd2565b90815260200160405180910390206016016000820151816000019080519060200190613a44929190613c6c565b506020820151816001019080519060200190613a61929190613c6c565b506040820151816002019080519060200190613a7e929190613c6c565b506060820151816003019080519060200190613a9b929190613c6c565b506080820151816004019080519060200190613ab8929190613c6c565b5060a0820151816005019080519060200190613ad5929190613c6c565b5060c0820151816006019080519060200190613af2929190613c6c565b5060e0820151816007019080519060200190613b0f929190613c6c565b5090505060016040518061010001604052808a81526020018981526020018881526020018781526020018681526020018581526020018481526020018381525090806001815401808255809150506001900390600052602060002090600802016000909190919091506000820151816000019080519060200190613b94929190613c6c565b506020820151816001019080519060200190613bb1929190613c6c565b506040820151816002019080519060200190613bce929190613c6c565b506060820151816003019080519060200190613beb929190613c6c565b506080820151816004019080519060200190613c08929190613c6c565b5060a0820151816005019080519060200190613c25929190613c6c565b5060c0820151816006019080519060200190613c42929190613c6c565b5060e0820151816007019080519060200190613c5f929190613c6c565b5050505050505050505050565b828054613c789061507b565b90600052602060002090601f016020900481019282613c9a5760008555613ce1565b82601f10613cb357805160ff1916838001178555613ce1565b82800160010185558215613ce1579182015b82811115613ce0578251825591602001919060010190613cc5565b5b509050613cee9190613def565b5090565b6040518060e00160405280606081526020016060815260200160608152602001600081526020016060815260200160608152602001600081525090565b60405180610100016040528060608152602001606081526020016060815260200160608152602001606081526020016060815260200160608152602001606081525090565b6040518060c001604052806060815260200160608152602001606081526020016060815260200160608152602001606081525090565b60405180610100016040528060608152602001606081526020016060815260200160608152602001600081526020016060815260200160008152602001606081525090565b5b80821115613e08576000816000905550600101613df0565b5090565b6000613e1f613e1a84614f34565b614f03565b905082815260208101848484011115613e3757600080fd5b613e42848285615039565b509392505050565b600082601f830112613e5b57600080fd5b8135613e6b848260208601613e0c565b91505092915050565b600081359050613e8381615194565b92915050565b600060208284031215613e9b57600080fd5b600082013567ffffffffffffffff811115613eb557600080fd5b613ec184828501613e4a565b91505092915050565b60008060408385031215613edd57600080fd5b600083013567ffffffffffffffff811115613ef757600080fd5b613f0385828601613e4a565b925050602083013567ffffffffffffffff811115613f2057600080fd5b613f2c85828601613e4a565b9150509250929050565b60008060008060008060c08789031215613f4f57600080fd5b600087013567ffffffffffffffff811115613f6957600080fd5b613f7589828a01613e4a565b965050602087013567ffffffffffffffff811115613f9257600080fd5b613f9e89828a01613e4a565b955050604087013567ffffffffffffffff811115613fbb57600080fd5b613fc789828a01613e4a565b945050606087013567ffffffffffffffff811115613fe457600080fd5b613ff089828a01613e4a565b935050608087013567ffffffffffffffff81111561400d57600080fd5b61401989828a01613e4a565b92505060a087013567ffffffffffffffff81111561403657600080fd5b61404289828a01613e4a565b9150509295509295509295565b600080600080600080600060e0888a03121561406a57600080fd5b600088013567ffffffffffffffff81111561408457600080fd5b6140908a828b01613e4a565b975050602088013567ffffffffffffffff8111156140ad57600080fd5b6140b98a828b01613e4a565b965050604088013567ffffffffffffffff8111156140d657600080fd5b6140e28a828b01613e4a565b955050606088013567ffffffffffffffff8111156140ff57600080fd5b61410b8a828b01613e4a565b945050608088013567ffffffffffffffff81111561412857600080fd5b6141348a828b01613e4a565b93505060a088013567ffffffffffffffff81111561415157600080fd5b61415d8a828b01613e4a565b92505060c088013567ffffffffffffffff81111561417a57600080fd5b6141868a828b01613e4a565b91505092959891949750929550565b600080600080600080600080610100898b0312156141b257600080fd5b600089013567ffffffffffffffff8111156141cc57600080fd5b6141d88b828c01613e4a565b985050602089013567ffffffffffffffff8111156141f557600080fd5b6142018b828c01613e4a565b975050604089013567ffffffffffffffff81111561421e57600080fd5b61422a8b828c01613e4a565b965050606089013567ffffffffffffffff81111561424757600080fd5b6142538b828c01613e4a565b955050608089013567ffffffffffffffff81111561427057600080fd5b61427c8b828c01613e4a565b94505060a089013567ffffffffffffffff81111561429957600080fd5b6142a58b828c01613e4a565b93505060c089013567ffffffffffffffff8111156142c257600080fd5b6142ce8b828c01613e4a565b92505060e089013567ffffffffffffffff8111156142eb57600080fd5b6142f78b828c01613e4a565b9150509295985092959890939650565b600080600080600080600080610100898b03121561432457600080fd5b600089013567ffffffffffffffff81111561433e57600080fd5b61434a8b828c01613e4a565b985050602089013567ffffffffffffffff81111561436757600080fd5b6143738b828c01613e4a565b975050604089013567ffffffffffffffff81111561439057600080fd5b61439c8b828c01613e4a565b965050606089013567ffffffffffffffff8111156143b957600080fd5b6143c58b828c01613e4a565b95505060806143d68b828c01613e74565b94505060a089013567ffffffffffffffff8111156143f357600080fd5b6143ff8b828c01613e4a565b93505060c06144108b828c01613e74565b92505060e089013567ffffffffffffffff81111561442d57600080fd5b6144398b828c01613e4a565b9150509295985092959890939650565b600080600080600080600060e0888a03121561446457600080fd5b600088013567ffffffffffffffff81111561447e57600080fd5b61448a8a828b01613e4a565b975050602088013567ffffffffffffffff8111156144a757600080fd5b6144b38a828b01613e4a565b965050604088013567ffffffffffffffff8111156144d057600080fd5b6144dc8a828b01613e4a565b95505060606144ed8a828b01613e74565b945050608088013567ffffffffffffffff81111561450a57600080fd5b6145168a828b01613e4a565b93505060a088013567ffffffffffffffff81111561453357600080fd5b61453f8a828b01613e4a565b92505060c06145508a828b01613e74565b91505092959891949750929550565b60006020828403121561457157600080fd5b600061457f84828501613e74565b91505092915050565b6000614594838361496f565b905092915050565b60006145a88383614a2e565b905092915050565b60006145bb82614f99565b6145c58185614fd4565b9350836020820285016145d785614f64565b8060005b8581101561461357848403895281516145f48582614588565b94506145ff83614fba565b925060208a019950506001810190506145db565b50829750879550505050505092915050565b600061463082614fa4565b61463a8185614fe5565b93508360208202850161464c85614f74565b8060005b858110156146885784840389528151614669858261459c565b945061467483614fc7565b925060208a01995050600181019050614650565b50829750879550505050505092915050565b6146a381615023565b82525050565b60006146b482614faf565b6146be8185614ff6565b93506146ce818560208601615048565b6146d781615183565b840191505092915050565b60006146ed82614faf565b6146f78185615007565b9350614707818560208601615048565b61471081615183565b840191505092915050565b600061472682614faf565b6147308185615018565b9350614740818560208601615048565b80840191505092915050565b600081546147598161507b565b6147638186615018565b9450600182166000811461477e576001811461478f576147c2565b60ff198316865281860193506147c2565b61479885614f84565b60005b838110156147ba5781548189015260018201915060208101905061479b565b838801955050505b50505092915050565b60006147d8601683615007565b91507f456e646f726573746d656e74206e6f7420666f756e64000000000000000000006000830152602082019050919050565b600060e083016000830151848203600086015261482882826146a9565b9150506020830151848203602086015261484282826146a9565b9150506040830151848203604086015261485c82826146a9565b91505060608301516148716060860182614cc3565b506080830151848203608086015261488982826146a9565b91505060a083015184820360a08601526148a382826146a9565b91505060c08301516148b860c0860182614cc3565b508091505092915050565b600060c08301600083015184820360008601526148e082826146a9565b915050602083015184820360208601526148fa82826146a9565b9150506040830151848203604086015261491482826146a9565b9150506060830151848203606086015261492e82826146a9565b9150506080830151848203608086015261494882826146a9565b91505060a083015184820360a086015261496282826146a9565b9150508091505092915050565b600060e083016000830151848203600086015261498c82826146a9565b915050602083015184820360208601526149a682826146a9565b915050604083015184820360408601526149c082826146a9565b915050606083015184820360608601526149da82826146a9565b915050608083015184820360808601526149f482826146a9565b91505060a083015184820360a0860152614a0e82826146a9565b91505060c0830151614a2360c086018261469a565b508091505092915050565b6000610100830160008301518482036000860152614a4c82826146a9565b91505060208301518482036020860152614a6682826146a9565b91505060408301518482036040860152614a8082826146a9565b91505060608301518482036060860152614a9a82826146a9565b91505060808301518482036080860152614ab482826146a9565b91505060a083015184820360a0860152614ace82826146a9565b91505060c083015184820360c0860152614ae882826146a9565b91505060e083015184820360e0860152614b0282826146a9565b9150508091505092915050565b6000610100830160008301518482036000860152614b2d82826146a9565b91505060208301518482036020860152614b4782826146a9565b91505060408301518482036040860152614b6182826146a9565b91505060608301518482036060860152614b7b82826146a9565b91505060808301518482036080860152614b9582826146a9565b91505060a083015184820360a0860152614baf82826146a9565b91505060c083015184820360c0860152614bc982826146a9565b91505060e083015184820360e0860152614be382826146a9565b9150508091505092915050565b6000610100830160008301518482036000860152614c0e82826146a9565b91505060208301518482036020860152614c2882826146a9565b91505060408301518482036040860152614c4282826146a9565b91505060608301518482036060860152614c5c82826146a9565b9150506080830151614c716080860182614cc3565b5060a083015184820360a0860152614c8982826146a9565b91505060c0830151614c9e60c0860182614cc3565b5060e083015184820360e0860152614cb682826146a9565b9150508091505092915050565b614ccc8161502f565b82525050565b6000614cde828461471b565b915081905092915050565b6000614cf5828461474c565b915081905092915050565b60006020820190508181036000830152614d1a81846145b0565b905092915050565b60006020820190508181036000830152614d3c8184614625565b905092915050565b6000610100820190508181036000830152614d5f818b6146e2565b90508181036020830152614d73818a6146e2565b90508181036040830152614d8781896146e2565b90508181036060830152614d9b81886146e2565b90508181036080830152614daf81876146e2565b905081810360a0830152614dc381866146e2565b905081810360c0830152614dd781856146e2565b905081810360e0830152614deb81846146e2565b90509998505050505050505050565b60006020820190508181036000830152614e13816147cb565b9050919050565b60006020820190508181036000830152614e34818461480b565b905092915050565b60006020820190508181036000830152614e5681846148c3565b905092915050565b60006080820190508181036000830152614e7881876148c3565b90508181036020830152614e8c8186614bf0565b90508181036040830152614ea0818561480b565b90508181036060830152614eb48184614b0f565b905095945050505050565b60006020820190508181036000830152614ed98184614b0f565b905092915050565b60006020820190508181036000830152614efb8184614bf0565b905092915050565b6000604051905081810181811067ffffffffffffffff82111715614f2a57614f29615154565b5b8060405250919050565b600067ffffffffffffffff821115614f4f57614f4e615154565b5b601f19601f8301169050602081019050919050565b6000819050602082019050919050565b6000819050602082019050919050565b60008190508160005260206000209050919050565b600081519050919050565b600081519050919050565b600081519050919050565b6000602082019050919050565b6000602082019050919050565b600082825260208201905092915050565b600082825260208201905092915050565b600082825260208201905092915050565b600082825260208201905092915050565b600081905092915050565b60008115159050919050565b6000819050919050565b82818337600083830152505050565b60005b8381101561506657808201518184015260208101905061504b565b83811115615075576000848401525b50505050565b6000600282049050600182168061509357607f821691505b602082108114156150a7576150a6615125565b5b50919050565b60006150b88261502f565b91507fffffffffffffffffffffffffffffffffffffffffffffffffffffffffffffffff8214156150eb576150ea6150f6565b5b600182019050919050565b7f4e487b7100000000000000000000000000000000000000000000000000000000600052601160045260246000fd5b7f4e487b7100000000000000000000000000000000000000000000000000000000600052602260045260246000fd5b7f4e487b7100000000000000000000000000000000000000000000000000000000600052604160045260246000fd5b6000601f19601f8301169050919050565b61519d8161502f565b81146151a857600080fd5b5056fea26469706673582212208c2c57ee34e3f74a34dc0656ed397d6b3e262bb71e1d74e7ef4fd4a5797b3fa264736f6c63430008000033",
  "immutableReferences": {},
  "source": "// SPDX-License-Identifier: UNLICENSED\r\npragma solidity ^0.8.0;\r\n\r\ncontract EmployeeInfo {\r\n    struct EmployeeBasicInfo {\r\n        string firstName;\r\n        string lastName;\r\n        string email;\r\n        string phone;\r\n        string employeeAddress;\r\n        string filename;\r\n    }\r\n\r\n    struct EmployeeWorkingInfo {\r\n        string email;\r\n        string organizationName;\r\n        string designation;\r\n        string responsibility;\r\n        uint256 salary;\r\n        string officeCity;\r\n        uint256 totalExperience;\r\n        string skill;\r\n    }\r\n\r\n    struct EmployeeAcademicInfo {\r\n        string email;\r\n        string collegeName;\r\n        string course;\r\n        uint256 score;\r\n        string university;\r\n        string collegeCity;\r\n        uint256 year;\r\n    }\r\n\r\n    enum DocumentTypes {\r\n        Education,\r\n        GovtID,\r\n        Files\r\n    }\r\n\r\n    struct EmployeeDocument {\r\n        // DocumentTypes documentType;\r\n        string title;\r\n        string document_id;\r\n        string file_name;\r\n        string file_url;\r\n        string json_data;\r\n        string verified_by;\r\n        bool isVerified;\r\n        // uint256 date;\r\n    }\r\n\r\n    struct EmployeeEndorestInfo {\r\n        string endoresid;\r\n        string email;\r\n        string endorest;\r\n        string desc;\r\n        string score;\r\n        string status;\r\n        string hasupdated;\r\n        string requestdate;\r\n    }\r\n\r\n    struct Employee {\r\n        EmployeeBasicInfo basicInfo;\r\n        EmployeeWorkingInfo workingInfo;\r\n        EmployeeAcademicInfo academicInfo;\r\n        EmployeeDocument[] documentInfo;\r\n        EmployeeEndorestInfo endorestInfo;\r\n    }\r\n\r\n    mapping(string => Employee) public employees; // Map email to Employee\r\n\r\n    function setBasicInfo(\r\n        string memory _firstName,\r\n        string memory _lastName,\r\n        string memory _email,\r\n        string memory _phone,\r\n        string memory _employeeAddress,\r\n        string memory _filename\r\n    ) public {\r\n        employees[_email].basicInfo = EmployeeBasicInfo(\r\n            _firstName,\r\n            _lastName,\r\n            _email,\r\n            _phone,\r\n            _employeeAddress,\r\n            _filename\r\n        );\r\n    }\r\n\r\n    function setWorkingInfo(\r\n        string memory _email,\r\n        string memory _organizationName,\r\n        string memory _designation,\r\n        string memory _responsibility,\r\n        uint256 _salary,\r\n        string memory _officeCity,\r\n        uint256 _totalExperience,\r\n        string memory _skill\r\n    ) public {\r\n        employees[_email].workingInfo = EmployeeWorkingInfo(\r\n            _email,\r\n            _organizationName,\r\n            _designation,\r\n            _responsibility,\r\n            _salary,\r\n            _officeCity,\r\n            _totalExperience,\r\n            _skill\r\n        );\r\n    }\r\n\r\n    function setAcademicInfo(\r\n        string memory _email,\r\n        string memory _collegeName,\r\n        string memory _course,\r\n        uint256 _score,\r\n        string memory _university,\r\n        string memory _collegeCity,\r\n        uint256 _year\r\n    ) public {\r\n        employees[_email].academicInfo = EmployeeAcademicInfo(\r\n            _email,\r\n            _collegeName,\r\n            _course,\r\n            _score,\r\n            _university,\r\n            _collegeCity,\r\n            _year\r\n        );\r\n    }\r\n\r\n    function addDocument(\r\n        string memory email,\r\n        string memory title,\r\n        string memory document_id,\r\n        string memory file_name,\r\n        string memory file_url,\r\n        string memory json_data,\r\n        string memory verified_by\r\n    ) public {\r\n        employees[email].documentInfo.push(\r\n            EmployeeDocument(\r\n                title,\r\n                document_id,\r\n                file_name,\r\n                file_url,\r\n                json_data,\r\n                verified_by,\r\n                true\r\n            )\r\n        );\r\n    }\r\n\r\n    function getProofInfoByEmail(\r\n        string memory _email\r\n    ) public view returns (EmployeeDocument[] memory) {\r\n        return employees[_email].documentInfo;\r\n    }\r\n\r\n    function getBasicInfoByEmail(\r\n        string memory _email\r\n    ) public view returns (EmployeeBasicInfo memory) {\r\n        return employees[_email].basicInfo;\r\n    }\r\n\r\n    function getWorkingInfoByEmail(\r\n        string memory _email\r\n    ) public view returns (EmployeeWorkingInfo memory) {\r\n        return employees[_email].workingInfo;\r\n    }\r\n\r\n    function getAcademicInfoByEmail(\r\n        string memory _email\r\n    ) public view returns (EmployeeAcademicInfo memory) {\r\n        return employees[_email].academicInfo;\r\n    }\r\n\r\n    function updateSkillByEmail(\r\n        string memory _email,\r\n        string memory _newSkill\r\n    ) public {\r\n        employees[_email].workingInfo.skill = _newSkill;\r\n    }\r\n\r\n    EmployeeEndorestInfo[] public allEndorestments; // Track all endorestments\r\n\r\n    // Function to set endorestment info\r\n    function setEndorestInfo(\r\n        string memory _endoresid,\r\n        string memory _email,\r\n        string memory _endorest,\r\n        string memory _desc,\r\n        string memory _score,\r\n        string memory _status,\r\n        string memory _hasupdated,\r\n        string memory _requestdate\r\n    ) public {\r\n        employees[_email].endorestInfo = EmployeeEndorestInfo(\r\n            _endoresid,\r\n            _email,\r\n            _endorest,\r\n            _desc,\r\n            _score,\r\n            _status,\r\n            _hasupdated,\r\n            _requestdate\r\n        );\r\n\r\n        // Add endorestment to allEndorestments array\r\n        allEndorestments.push(\r\n            EmployeeEndorestInfo(\r\n                _endoresid,\r\n                _email,\r\n                _endorest,\r\n                _desc,\r\n                _score,\r\n                _status,\r\n                _hasupdated,\r\n                _requestdate\r\n            )\r\n        );\r\n    }\r\n\r\n    // Function to get endorestment info by email\r\n    function getEndorestInfoByEmail(\r\n        string memory _email\r\n    ) public view returns (EmployeeEndorestInfo memory) {\r\n        return employees[_email].endorestInfo;\r\n    }\r\n\r\n    // Function to get all endorestments\r\n    function getAllEndorestInfo()\r\n        public\r\n        view\r\n        returns (EmployeeEndorestInfo[] memory)\r\n    {\r\n        return allEndorestments;\r\n    }\r\n\r\n    function getEndorestInfoByEndorestId(\r\n        string memory _endorestid\r\n    ) public view returns (EmployeeEndorestInfo memory) {\r\n        for (uint i = 0; i < allEndorestments.length; i++) {\r\n            if (\r\n                keccak256(abi.encodePacked(allEndorestments[i].endoresid)) ==\r\n                keccak256(abi.encodePacked(_endorestid))\r\n            ) {\r\n                return allEndorestments[i];\r\n            }\r\n        }\r\n\r\n        revert(\"Endorestment not found\");\r\n    }\r\n\r\n}\r\n",
  "sourcePath": "/Users/hchauhan/Downloads/verified-hire/contracts/employeeDetail.sol",
  "compiler": {
    "name": "solc",
    "version": "0.8.0+commit.c7dfd78e.Emscripten.clang"
  },
  "schemaVersion": "3.4.16",
  "updatedAt": "2024-06-03T20:19:32.792Z",
  "networkType": "ethereum",
  "devdoc": {
    "kind": "dev",
    "methods": {},
    "version": 1
  },
  "userdoc": {
    "kind": "user",
    "methods": {},
    "version": 1
  }
}