{
  "contractName": "EmployeeManagement",
  "abi": [
    {
      "anonymous": false,
      "inputs": [
        {
          "indexed": false,
          "internalType": "string",
          "name": "email",
          "type": "string"
        }
      ],
      "name": "EmployeeLoggedIn",
      "type": "event"
    },
    {
      "anonymous": false,
      "inputs": [
        {
          "indexed": false,
          "internalType": "string",
          "name": "email",
          "type": "string"
        }
      ],
      "name": "EmployeeRegistered",
      "type": "event"
    },
    {
      "anonymous": false,
      "inputs": [
        {
          "indexed": false,
          "internalType": "string",
          "name": "email",
          "type": "string"
        },
        {
          "indexed": false,
          "internalType": "uint256",
          "name": "loginTime",
          "type": "uint256"
        }
      ],
      "name": "LoginLogAdded",
      "type": "event"
    },
    {
      "inputs": [
        {
          "internalType": "string",
          "name": "",
          "type": "string"
        }
      ],
      "name": "emailExists",
      "outputs": [
        {
          "internalType": "bool",
          "name": "",
          "type": "bool"
        }
      ],
      "stateMutability": "view",
      "type": "function",
      "constant": true
    },
    {
      "inputs": [],
      "name": "employeeCount",
      "outputs": [
        {
          "internalType": "uint256",
          "name": "",
          "type": "uint256"
        }
      ],
      "stateMutability": "view",
      "type": "function",
      "constant": true
    },
    {
      "inputs": [
        {
          "internalType": "uint256",
          "name": "",
          "type": "uint256"
        }
      ],
      "name": "employeeKeys",
      "outputs": [
        {
          "internalType": "string",
          "name": "",
          "type": "string"
        }
      ],
      "stateMutability": "view",
      "type": "function",
      "constant": true
    },
    {
      "inputs": [
        {
          "internalType": "string",
          "name": "",
          "type": "string"
        }
      ],
      "name": "employees",
      "outputs": [
        {
          "internalType": "string",
          "name": "name",
          "type": "string"
        },
        {
          "internalType": "string",
          "name": "email",
          "type": "string"
        },
        {
          "internalType": "string",
          "name": "password",
          "type": "string"
        },
        {
          "internalType": "string",
          "name": "phone",
          "type": "string"
        },
        {
          "internalType": "string",
          "name": "uid",
          "type": "string"
        }
      ],
      "stateMutability": "view",
      "type": "function",
      "constant": true
    },
    {
      "inputs": [
        {
          "internalType": "string",
          "name": "",
          "type": "string"
        }
      ],
      "name": "loggedIn",
      "outputs": [
        {
          "internalType": "bool",
          "name": "",
          "type": "bool"
        }
      ],
      "stateMutability": "view",
      "type": "function",
      "constant": true
    },
    {
      "inputs": [
        {
          "internalType": "string",
          "name": "",
          "type": "string"
        }
      ],
      "name": "loginTime",
      "outputs": [
        {
          "internalType": "uint256",
          "name": "",
          "type": "uint256"
        }
      ],
      "stateMutability": "view",
      "type": "function",
      "constant": true
    },
    {
      "inputs": [
        {
          "internalType": "string",
          "name": "",
          "type": "string"
        }
      ],
      "name": "uidToEmail",
      "outputs": [
        {
          "internalType": "string",
          "name": "",
          "type": "string"
        }
      ],
      "stateMutability": "view",
      "type": "function",
      "constant": true
    },
    {
      "inputs": [
        {
          "internalType": "string",
          "name": "_name",
          "type": "string"
        },
        {
          "internalType": "string",
          "name": "_email",
          "type": "string"
        },
        {
          "internalType": "string",
          "name": "_password",
          "type": "string"
        },
        {
          "internalType": "string",
          "name": "_phone",
          "type": "string"
        },
        {
          "internalType": "string",
          "name": "_uid",
          "type": "string"
        }
      ],
      "name": "registerEmployee",
      "outputs": [],
      "stateMutability": "nonpayable",
      "type": "function"
    },
    {
      "inputs": [],
      "name": "getAllEmployees",
      "outputs": [
        {
          "components": [
            {
              "internalType": "string",
              "name": "name",
              "type": "string"
            },
            {
              "internalType": "string",
              "name": "email",
              "type": "string"
            },
            {
              "internalType": "string",
              "name": "password",
              "type": "string"
            },
            {
              "internalType": "string",
              "name": "phone",
              "type": "string"
            },
            {
              "internalType": "string",
              "name": "uid",
              "type": "string"
            }
          ],
          "internalType": "struct EmployeeManagement.Employee[]",
          "name": "",
          "type": "tuple[]"
        }
      ],
      "stateMutability": "view",
      "type": "function",
      "constant": true
    },
    {
      "inputs": [
        {
          "internalType": "string",
          "name": "_email",
          "type": "string"
        },
        {
          "internalType": "string",
          "name": "_password",
          "type": "string"
        }
      ],
      "name": "employeeLogin",
      "outputs": [],
      "stateMutability": "nonpayable",
      "type": "function"
    },
    {
      "inputs": [
        {
          "internalType": "string",
          "name": "_email",
          "type": "string"
        },
        {
          "internalType": "uint256",
          "name": "_loginTime",
          "type": "uint256"
        }
      ],
      "name": "addLoginLog",
      "outputs": [],
      "stateMutability": "nonpayable",
      "type": "function"
    },
    {
      "inputs": [
        {
          "internalType": "string",
          "name": "_email",
          "type": "string"
        }
      ],
      "name": "getEmployeeByEmail",
      "outputs": [
        {
          "internalType": "string",
          "name": "",
          "type": "string"
        },
        {
          "internalType": "string",
          "name": "",
          "type": "string"
        },
        {
          "internalType": "string",
          "name": "",
          "type": "string"
        },
        {
          "internalType": "string",
          "name": "",
          "type": "string"
        },
        {
          "internalType": "string",
          "name": "",
          "type": "string"
        }
      ],
      "stateMutability": "view",
      "type": "function",
      "constant": true
    },
    {
      "inputs": [
        {
          "internalType": "string",
          "name": "_uid",
          "type": "string"
        }
      ],
      "name": "getEmployeeByUid",
      "outputs": [
        {
          "internalType": "string",
          "name": "",
          "type": "string"
        },
        {
          "internalType": "string",
          "name": "",
          "type": "string"
        },
        {
          "internalType": "string",
          "name": "",
          "type": "string"
        },
        {
          "internalType": "string",
          "name": "",
          "type": "string"
        },
        {
          "internalType": "string",
          "name": "",
          "type": "string"
        }
      ],
      "stateMutability": "view",
      "type": "function",
      "constant": true
    },
    {
      "inputs": [
        {
          "internalType": "string",
          "name": "_uid",
          "type": "string"
        }
      ],
      "name": "getEmailByUID",
      "outputs": [
        {
          "internalType": "string",
          "name": "",
          "type": "string"
        }
      ],
      "stateMutability": "view",
      "type": "function",
      "constant": true
    }
  ],
  "bytecode": "0x608060405234801561001057600080fd5b506122b5806100206000396000f3fe608060405234801561001057600080fd5b50600436106100ea5760003560e01c80639047bf581161008c578063b4ed0b9d11610066578063b4ed0b9d14610289578063bffa019b146102bd578063e3366fed146102ed578063eb62249c1461030b576100ea565b80639047bf581461021b578063afeaef7214610239578063b47e85881461026d576100ea565b8063594aef6b116100c8578063594aef6b1461017f5780635b68a6cd146101b35780635df66445146101cf578063611f4015146101eb576100ea565b8063297ce267146100ef5780632be46c3c1461011f578063588ab12d1461014f575b600080fd5b610109600480360381019061010491906118d8565b61033b565b6040516101169190611eb2565b60405180910390f35b610139600480360381019061013491906118d8565b610371565b6040516101469190611eb2565b60405180910390f35b61016960048036038101906101649190611ac8565b6103a7565b6040516101769190611ecd565b60405180910390f35b610199600480360381019061019491906118d8565b610453565b6040516101aa959493929190611eef565b60405180910390f35b6101cd60048036038101906101c89190611985565b61083a565b005b6101e960048036038101906101e49190611a74565b610a35565b005b610205600480360381019061020091906118d8565b610acc565b6040516102129190611fd5565b60405180910390f35b610223610afa565b6040516102309190611fd5565b60405180910390f35b610253600480360381019061024e91906118d8565b610b00565b604051610264959493929190611eef565b60405180910390f35b61028760048036038101906102829190611919565b610e3b565b005b6102a3600480360381019061029e91906118d8565b610ef4565b6040516102b4959493929190611eef565b60405180910390f35b6102d760048036038101906102d291906118d8565b6111e8565b6040516102e49190611ecd565b60405180910390f35b6102f5611298565b6040516103029190611e90565b60405180910390f35b610325600480360381019061032091906118d8565b6116d3565b6040516103329190611ecd565b60405180910390f35b6002818051602081018201805184825260208301602085012081835280955050505050506000915054906101000a900460ff1681565b6001818051602081018201805184825260208301602085012081835280955050505050506000915054906101000a900460ff1681565b600681815481106103b757600080fd5b9060005260206000200160009150905080546103d29061214f565b80601f01602080910402602001604051908101604052809291908181526020018280546103fe9061214f565b801561044b5780601f106104205761010080835404028352916020019161044b565b820191906000526020600020905b81548152906001019060200180831161042e57829003601f168201915b505050505081565b6060806060806060600060048760405161046d9190611e62565b908152602001604051809103902080546104869061214f565b80601f01602080910402602001604051908101604052809291908181526020018280546104b29061214f565b80156104ff5780601f106104d4576101008083540402835291602001916104ff565b820191906000526020600020905b8154815290600101906020018083116104e257829003601f168201915b50505050509050600080826040516105179190611e62565b90815260200160405180910390206040518060a00160405290816000820180546105409061214f565b80601f016020809104026020016040519081016040528092919081815260200182805461056c9061214f565b80156105b95780601f1061058e576101008083540402835291602001916105b9565b820191906000526020600020905b81548152906001019060200180831161059c57829003601f168201915b505050505081526020016001820180546105d29061214f565b80601f01602080910402602001604051908101604052809291908181526020018280546105fe9061214f565b801561064b5780601f106106205761010080835404028352916020019161064b565b820191906000526020600020905b81548152906001019060200180831161062e57829003601f168201915b505050505081526020016002820180546106649061214f565b80601f01602080910402602001604051908101604052809291908181526020018280546106909061214f565b80156106dd5780601f106106b2576101008083540402835291602001916106dd565b820191906000526020600020905b8154815290600101906020018083116106c057829003601f168201915b505050505081526020016003820180546106f69061214f565b80601f01602080910402602001604051908101604052809291908181526020018280546107229061214f565b801561076f5780601f106107445761010080835404028352916020019161076f565b820191906000526020600020905b81548152906001019060200180831161075257829003601f168201915b505050505081526020016004820180546107889061214f565b80601f01602080910402602001604051908101604052809291908181526020018280546107b49061214f565b80156108015780601f106107d657610100808354040283529160200191610801565b820191906000526020600020905b8154815290600101906020018083116107e457829003601f168201915b50505050508152505090508060000151816020015182604001518360600151846080015196509650965096509650505091939590929450565b6000808560405161084b9190611e62565b908152602001604051809103902060010180546108679061214f565b9050146108a9576040517f08c379a00000000000000000000000000000000000000000000000000000000081526004016108a090611fb5565b60405180910390fd5b60006040518060a00160405280878152602001868152602001858152602001848152602001838152509050806000866040516108e59190611e62565b9081526020016040518091039020600082015181600001908051906020019061090f929190611789565b50602082015181600101908051906020019061092c929190611789565b506040820151816002019080519060200190610949929190611789565b506060820151816003019080519060200190610966929190611789565b506080820151816004019080519060200190610983929190611789565b509050506006859080600181540180825580915050600190039060005260206000200160009091909190915090805190602001906109c2929190611789565b50846004836040516109d49190611e62565b908152602001604051809103902090805190602001906109f5929190611789565b507f50f4251cd72ffc68d022152067842ea66e3909402ecfe0af4c7249ac6378552b85604051610a259190611ecd565b60405180910390a1505050505050565b6001600283604051610a479190611e62565b908152602001604051809103902060006101000a81548160ff02191690831515021790555080600383604051610a7d9190611e62565b9081526020016040518091039020819055507fa7d4d18855928f1e1d93d1bfa35437ec1b0b1ce2d537e0da9f8863ab66eec3a58282604051610ac0929190611f65565b60405180910390a15050565b6003818051602081018201805184825260208301602085012081835280955050505050506000915090505481565b60055481565b606080606080606060008087604051610b199190611e62565b90815260200160405180910390206040518060a0016040529081600082018054610b429061214f565b80601f0160208091040260200160405190810160405280929190818152602001828054610b6e9061214f565b8015610bbb5780601f10610b9057610100808354040283529160200191610bbb565b820191906000526020600020905b815481529060010190602001808311610b9e57829003601f168201915b50505050508152602001600182018054610bd49061214f565b80601f0160208091040260200160405190810160405280929190818152602001828054610c009061214f565b8015610c4d5780601f10610c2257610100808354040283529160200191610c4d565b820191906000526020600020905b815481529060010190602001808311610c3057829003601f168201915b50505050508152602001600282018054610c669061214f565b80601f0160208091040260200160405190810160405280929190818152602001828054610c929061214f565b8015610cdf5780601f10610cb457610100808354040283529160200191610cdf565b820191906000526020600020905b815481529060010190602001808311610cc257829003601f168201915b50505050508152602001600382018054610cf89061214f565b80601f0160208091040260200160405190810160405280929190818152602001828054610d249061214f565b8015610d715780601f10610d4657610100808354040283529160200191610d71565b820191906000526020600020905b815481529060010190602001808311610d5457829003601f168201915b50505050508152602001600482018054610d8a9061214f565b80601f0160208091040260200160405190810160405280929190818152602001828054610db69061214f565b8015610e035780601f10610dd857610100808354040283529160200191610e03565b820191906000526020600020905b815481529060010190602001808311610de657829003601f168201915b505050505081525050905080600001518160200151826040015183606001518460800151955095509550955095505091939590929450565b8080519060200120600083604051610e539190611e62565b9081526020016040518091039020600201604051610e719190611e4b565b604051809103902014610eb9576040517f08c379a0000000000000000000000000000000000000000000000000000000008152600401610eb090611f95565b60405180910390fd5b7f1df7b513caa7e4f781e1217d43ace5e9f88ca17fae71cec5d9adb231bde3a2f082604051610ee89190611ecd565b60405180910390a15050565b600081805160208101820180518482526020830160208501208183528095505050505050600091509050806000018054610f2d9061214f565b80601f0160208091040260200160405190810160405280929190818152602001828054610f599061214f565b8015610fa65780601f10610f7b57610100808354040283529160200191610fa6565b820191906000526020600020905b815481529060010190602001808311610f8957829003601f168201915b505050505090806001018054610fbb9061214f565b80601f0160208091040260200160405190810160405280929190818152602001828054610fe79061214f565b80156110345780601f1061100957610100808354040283529160200191611034565b820191906000526020600020905b81548152906001019060200180831161101757829003601f168201915b5050505050908060020180546110499061214f565b80601f01602080910402602001604051908101604052809291908181526020018280546110759061214f565b80156110c25780601f10611097576101008083540402835291602001916110c2565b820191906000526020600020905b8154815290600101906020018083116110a557829003601f168201915b5050505050908060030180546110d79061214f565b80601f01602080910402602001604051908101604052809291908181526020018280546111039061214f565b80156111505780601f1061112557610100808354040283529160200191611150565b820191906000526020600020905b81548152906001019060200180831161113357829003601f168201915b5050505050908060040180546111659061214f565b80601f01602080910402602001604051908101604052809291908181526020018280546111919061214f565b80156111de5780601f106111b3576101008083540402835291602001916111de565b820191906000526020600020905b8154815290600101906020018083116111c157829003601f168201915b5050505050905085565b60606004826040516111fa9190611e62565b908152602001604051809103902080546112139061214f565b80601f016020809104026020016040519081016040528092919081815260200182805461123f9061214f565b801561128c5780601f106112615761010080835404028352916020019161128c565b820191906000526020600020905b81548152906001019060200180831161126f57829003601f168201915b50505050509050919050565b60606000600680549050905060008167ffffffffffffffff8111156112e6577f4e487b7100000000000000000000000000000000000000000000000000000000600052604160045260246000fd5b60405190808252806020026020018201604052801561131f57816020015b61130c61180f565b8152602001906001900390816113045790505b50905060005b828110156116ca57600060068281548110611369577f4e487b7100000000000000000000000000000000000000000000000000000000600052603260045260246000fd5b906000526020600020016040516113809190611e79565b90815260200160405180910390206040518060a00160405290816000820180546113a99061214f565b80601f01602080910402602001604051908101604052809291908181526020018280546113d59061214f565b80156114225780601f106113f757610100808354040283529160200191611422565b820191906000526020600020905b81548152906001019060200180831161140557829003601f168201915b5050505050815260200160018201805461143b9061214f565b80601f01602080910402602001604051908101604052809291908181526020018280546114679061214f565b80156114b45780601f10611489576101008083540402835291602001916114b4565b820191906000526020600020905b81548152906001019060200180831161149757829003601f168201915b505050505081526020016002820180546114cd9061214f565b80601f01602080910402602001604051908101604052809291908181526020018280546114f99061214f565b80156115465780601f1061151b57610100808354040283529160200191611546565b820191906000526020600020905b81548152906001019060200180831161152957829003601f168201915b5050505050815260200160038201805461155f9061214f565b80601f016020809104026020016040519081016040528092919081815260200182805461158b9061214f565b80156115d85780601f106115ad576101008083540402835291602001916115d8565b820191906000526020600020905b8154815290600101906020018083116115bb57829003601f168201915b505050505081526020016004820180546115f19061214f565b80601f016020809104026020016040519081016040528092919081815260200182805461161d9061214f565b801561166a5780601f1061163f5761010080835404028352916020019161166a565b820191906000526020600020905b81548152906001019060200180831161164d57829003601f168201915b5050505050815250508282815181106116ac577f4e487b7100000000000000000000000000000000000000000000000000000000600052603260045260246000fd5b602002602001018190525080806116c290612181565b915050611325565b50809250505090565b60048180516020810182018051848252602083016020850120818352809550505050505060009150905080546117089061214f565b80601f01602080910402602001604051908101604052809291908181526020018280546117349061214f565b80156117815780601f1061175657610100808354040283529160200191611781565b820191906000526020600020905b81548152906001019060200180831161176457829003601f168201915b505050505081565b8280546117959061214f565b90600052602060002090601f0160209004810192826117b757600085556117fe565b82601f106117d057805160ff19168380011785556117fe565b828001600101855582156117fe579182015b828111156117fd5782518255916020019190600101906117e2565b5b50905061180b919061183e565b5090565b6040518060a0016040528060608152602001606081526020016060815260200160608152602001606081525090565b5b8082111561185757600081600090555060010161183f565b5090565b600061186e61186984612021565b611ff0565b90508281526020810184848401111561188657600080fd5b61189184828561210d565b509392505050565b600082601f8301126118aa57600080fd5b81356118ba84826020860161185b565b91505092915050565b6000813590506118d281612268565b92915050565b6000602082840312156118ea57600080fd5b600082013567ffffffffffffffff81111561190457600080fd5b61191084828501611899565b91505092915050565b6000806040838503121561192c57600080fd5b600083013567ffffffffffffffff81111561194657600080fd5b61195285828601611899565b925050602083013567ffffffffffffffff81111561196f57600080fd5b61197b85828601611899565b9150509250929050565b600080600080600060a0868803121561199d57600080fd5b600086013567ffffffffffffffff8111156119b757600080fd5b6119c388828901611899565b955050602086013567ffffffffffffffff8111156119e057600080fd5b6119ec88828901611899565b945050604086013567ffffffffffffffff811115611a0957600080fd5b611a1588828901611899565b935050606086013567ffffffffffffffff811115611a3257600080fd5b611a3e88828901611899565b925050608086013567ffffffffffffffff811115611a5b57600080fd5b611a6788828901611899565b9150509295509295909350565b60008060408385031215611a8757600080fd5b600083013567ffffffffffffffff811115611aa157600080fd5b611aad85828601611899565b9250506020611abe858286016118c3565b9150509250929050565b600060208284031215611ada57600080fd5b6000611ae8848285016118c3565b91505092915050565b6000611afd8383611daa565b905092915050565b6000611b108261208b565b611b1a81856120ae565b935083602082028501611b2c85612051565b8060005b85811015611b685784840389528151611b498582611af1565b9450611b54836120a1565b925060208a01995050600181019050611b30565b50829750879550505050505092915050565b611b83816120f7565b82525050565b60008154611b968161214f565b611ba081866120bf565b94506001821660008114611bbb5760018114611bcc57611bff565b60ff19831686528186019350611bff565b611bd585612061565b60005b83811015611bf757815481890152600182019150602081019050611bd8565b838801955050505b50505092915050565b6000611c1382612096565b611c1d81856120ca565b9350611c2d81856020860161211c565b611c3681612257565b840191505092915050565b6000611c4c82612096565b611c5681856120db565b9350611c6681856020860161211c565b611c6f81612257565b840191505092915050565b6000611c8582612096565b611c8f81856120ec565b9350611c9f81856020860161211c565b80840191505092915050565b60008154611cb88161214f565b611cc281866120ec565b94506001821660008114611cdd5760018114611cee57611d21565b60ff19831686528186019350611d21565b611cf785612076565b60005b83811015611d1957815481890152600182019150602081019050611cfa565b838801955050505b50505092915050565b6000611d376012836120db565b91507f496e636f72726563742070617373776f726400000000000000000000000000006000830152602082019050919050565b6000611d776018836120db565b91507f456d61696c20616c7265616479207265676973746572656400000000000000006000830152602082019050919050565b600060a0830160008301518482036000860152611dc78282611c08565b91505060208301518482036020860152611de18282611c08565b91505060408301518482036040860152611dfb8282611c08565b91505060608301518482036060860152611e158282611c08565b91505060808301518482036080860152611e2f8282611c08565b9150508091505092915050565b611e4581612103565b82525050565b6000611e578284611b89565b915081905092915050565b6000611e6e8284611c7a565b915081905092915050565b6000611e858284611cab565b915081905092915050565b60006020820190508181036000830152611eaa8184611b05565b905092915050565b6000602082019050611ec76000830184611b7a565b92915050565b60006020820190508181036000830152611ee78184611c41565b905092915050565b600060a0820190508181036000830152611f098188611c41565b90508181036020830152611f1d8187611c41565b90508181036040830152611f318186611c41565b90508181036060830152611f458185611c41565b90508181036080830152611f598184611c41565b90509695505050505050565b60006040820190508181036000830152611f7f8185611c41565b9050611f8e6020830184611e3c565b9392505050565b60006020820190508181036000830152611fae81611d2a565b9050919050565b60006020820190508181036000830152611fce81611d6a565b9050919050565b6000602082019050611fea6000830184611e3c565b92915050565b6000604051905081810181811067ffffffffffffffff8211171561201757612016612228565b5b8060405250919050565b600067ffffffffffffffff82111561203c5761203b612228565b5b601f19601f8301169050602081019050919050565b6000819050602082019050919050565b60008190508160005260206000209050919050565b60008190508160005260206000209050919050565b600081519050919050565b600081519050919050565b6000602082019050919050565b600082825260208201905092915050565b600081905092915050565b600082825260208201905092915050565b600082825260208201905092915050565b600081905092915050565b60008115159050919050565b6000819050919050565b82818337600083830152505050565b60005b8381101561213a57808201518184015260208101905061211f565b83811115612149576000848401525b50505050565b6000600282049050600182168061216757607f821691505b6020821081141561217b5761217a6121f9565b5b50919050565b600061218c82612103565b91507fffffffffffffffffffffffffffffffffffffffffffffffffffffffffffffffff8214156121bf576121be6121ca565b5b600182019050919050565b7f4e487b7100000000000000000000000000000000000000000000000000000000600052601160045260246000fd5b7f4e487b7100000000000000000000000000000000000000000000000000000000600052602260045260246000fd5b7f4e487b7100000000000000000000000000000000000000000000000000000000600052604160045260246000fd5b6000601f19601f8301169050919050565b61227181612103565b811461227c57600080fd5b5056fea2646970667358221220e543234e98fd2b7909fbea3e5099ff9dd6a33cfd2d5c54a084d3815cbf7006f964736f6c63430008000033",
  "immutableReferences": {},
  "source": "// SPDX-License-Identifier: UNLICENSED\r\npragma solidity ^0.8.0;\r\n\r\ncontract RecruiterManagement {\r\n    struct Recruiter {\r\n        string name;\r\n        string email;\r\n        string password;\r\n        string phone;\r\n        string company;\r\n        string admin;\r\n    }\r\n\r\n    mapping(string => Recruiter) public recruiters;\r\n    mapping(string => bool) public emailExists;\r\n\r\n    event RecruiterRegistered(string email);\r\n    event RecruiterLoggedIn(string email);\r\n\r\n    string[] public recruiterKeys;\r\n\r\n    function registerRecruiter(\r\n        string memory _name,\r\n        string memory _email,\r\n        string memory _password,\r\n        string memory _phone,\r\n        string memory _company,\r\n        string memory _admin\r\n    ) external {\r\n        require(\r\n            bytes(recruiters[_email].email).length == 0,\r\n            \"Email already registered\"\r\n        );\r\n\r\n        Recruiter memory newRecruiter = Recruiter(\r\n            _name,\r\n            _email,\r\n            _password,\r\n            _phone,\r\n            _company,\r\n            _admin\r\n        );\r\n        recruiters[_email] = newRecruiter;\r\n        recruiterKeys.push(_email);\r\n    }\r\n\r\n    function getAllRecruiters() public view returns (Recruiter[] memory) {\r\n        uint256 count = recruiterKeys.length;\r\n        Recruiter[] memory allRecruiters = new Recruiter[](count);\r\n        for (uint256 i = 0; i < count; i++) {\r\n            allRecruiters[i] = recruiters[recruiterKeys[i]];\r\n        }\r\n        return allRecruiters;\r\n    }\r\n\r\n    function recruiterLogin(\r\n        string memory _email,\r\n        string memory _password\r\n    ) external returns (bool) {\r\n        require(\r\n            keccak256(bytes(recruiters[_email].password)) ==\r\n                keccak256(bytes(_password)),\r\n            \"Incorrect password\"\r\n        );\r\n        emit RecruiterLoggedIn(_email);\r\n        return true;\r\n    }\r\n\r\n    function getRecruiterByEmail(\r\n        string memory _email\r\n    )\r\n        external\r\n        view\r\n        returns (\r\n            string memory,\r\n            string memory,\r\n            string memory,\r\n            string memory,\r\n            string memory,\r\n            string memory\r\n        )\r\n    {\r\n        Recruiter memory recruiter = recruiters[_email];\r\n        return (\r\n            recruiter.name,\r\n            recruiter.email,\r\n            recruiter.password,\r\n            recruiter.phone,\r\n            recruiter.company,\r\n            recruiter.admin\r\n        );\r\n    }\r\n\r\n    function updateAdmin(\r\n        string memory _email,\r\n        string memory _newAdmin\r\n    ) external {\r\n        require(\r\n            bytes(recruiters[_email].email).length != 0,\r\n            \"Recruiter not found\"\r\n        );\r\n        recruiters[_email].admin = _newAdmin;\r\n    }\r\n\r\n    struct VerificationRecord {\r\n        string recname;\r\n        string company;\r\n        string recemail;\r\n        string uid;\r\n        string vftime;\r\n    }\r\n\r\n    VerificationRecord[] public verificationRecords;\r\n\r\n    function addVerificationRecord(\r\n        string memory _recname,\r\n        string memory _company,\r\n        string memory _recemail,\r\n        string memory _uid,\r\n        string memory _vftime\r\n    ) external {\r\n        VerificationRecord memory newRecord = VerificationRecord(\r\n            _recname,\r\n            _company,\r\n            _recemail,\r\n            _uid,\r\n            _vftime\r\n        );\r\n        verificationRecords.push(newRecord);\r\n    }\r\n\r\n    function getAllVerificationRecords()\r\n        public\r\n        view\r\n        returns (VerificationRecord[] memory)\r\n    {\r\n        return verificationRecords;\r\n    }\r\n}\r\n\r\ncontract EmployeeManagement {\r\n    struct Employee {\r\n        string name;\r\n        string email;\r\n        string password;\r\n        string phone;\r\n        string uid;\r\n    }\r\n\r\n    mapping(string => Employee) public employees;\r\n    mapping(string => bool) public emailExists;\r\n    mapping(string => bool) public loggedIn;\r\n    mapping(string => uint256) public loginTime;\r\n    mapping(string => string) public uidToEmail; // Mapping from UID to email\r\n    uint256 public employeeCount;\r\n\r\n    event EmployeeRegistered(string email);\r\n    event EmployeeLoggedIn(string email);\r\n    event LoginLogAdded(string email, uint256 loginTime);\r\n\r\n    string[] public employeeKeys;\r\n\r\n    function registerEmployee(\r\n        string memory _name,\r\n        string memory _email,\r\n        string memory _password,\r\n        string memory _phone,\r\n        string memory _uid\r\n    ) external {\r\n        require(\r\n            bytes(employees[_email].email).length == 0,\r\n            \"Email already registered\"\r\n        );\r\n\r\n        Employee memory newEmployee = Employee(\r\n            _name,\r\n            _email,\r\n            _password,\r\n            _phone,\r\n            _uid\r\n        );\r\n        employees[_email] = newEmployee;\r\n        employeeKeys.push(_email);\r\n\r\n        // Update uidToEmail mapping\r\n        uidToEmail[_uid] = _email;\r\n\r\n        emit EmployeeRegistered(_email);\r\n    }\r\n\r\n    function getAllEmployees() public view returns (Employee[] memory) {\r\n        uint256 count = employeeKeys.length;\r\n        Employee[] memory allEmployees = new Employee[](count);\r\n        for (uint256 i = 0; i < count; i++) {\r\n            allEmployees[i] = employees[employeeKeys[i]];\r\n        }\r\n        return allEmployees;\r\n    }\r\n\r\n    function employeeLogin(\r\n        string memory _email,\r\n        string memory _password\r\n    ) external {\r\n        require(\r\n            keccak256(bytes(employees[_email].password)) ==\r\n                keccak256(bytes(_password)),\r\n            \"Incorrect password\"\r\n        );\r\n\r\n        emit EmployeeLoggedIn(_email);\r\n    }\r\n\r\n    function addLoginLog(string memory _email, uint256 _loginTime) external {\r\n        loggedIn[_email] = true;\r\n        loginTime[_email] = _loginTime;\r\n        emit LoginLogAdded(_email, _loginTime);\r\n    }\r\n\r\n    function getEmployeeByEmail(\r\n        string memory _email\r\n    )\r\n        external\r\n        view\r\n        returns (\r\n            string memory,\r\n            string memory,\r\n            string memory,\r\n            string memory,\r\n            string memory\r\n        )\r\n    {\r\n        Employee memory employee = employees[_email];\r\n        return (\r\n            employee.name,\r\n            employee.email,\r\n            employee.password,\r\n            employee.phone,\r\n            employee.uid\r\n        );\r\n    }\r\n\r\n    function getEmployeeByUid(\r\n        string memory _uid\r\n    )\r\n        external\r\n        view\r\n        returns (\r\n            string memory,\r\n            string memory,\r\n            string memory,\r\n            string memory,\r\n            string memory\r\n        )\r\n    {\r\n        string memory email = uidToEmail[_uid];\r\n        Employee memory employee = employees[email];\r\n        return (\r\n            employee.name,\r\n            employee.email,\r\n            employee.password,\r\n            employee.phone,\r\n            employee.uid\r\n        );\r\n    }\r\n\r\n    function getEmailByUID(\r\n        string memory _uid\r\n    ) external view returns (string memory) {\r\n        return uidToEmail[_uid];\r\n    }\r\n}\r\n",
  "sourcePath": "/Users/hchauhan/Downloads/verified-hire/contracts/VerifiedHire.sol",
  "compiler": {
    "name": "solc",
    "version": "0.8.0+commit.c7dfd78e.Emscripten.clang"
  },
  "schemaVersion": "3.4.16",
  "updatedAt": "2024-06-03T20:19:32.756Z",
  "networkType": "ethereum",
  "devdoc": {
    "kind": "dev",
    "methods": {},
    "version": 1
  },
  "userdoc": {
    "kind": "user",
    "methods": {},
    "version": 1
  }
}