{
  "contractName": "RecruiterManagement",
  "abi": [
    {
      "anonymous": false,
      "inputs": [
        {
          "indexed": false,
          "internalType": "string",
          "name": "email",
          "type": "string"
        }
      ],
      "name": "RecruiterLoggedIn",
      "type": "event"
    },
    {
      "anonymous": false,
      "inputs": [
        {
          "indexed": false,
          "internalType": "string",
          "name": "email",
          "type": "string"
        }
      ],
      "name": "RecruiterRegistered",
      "type": "event"
    },
    {
      "inputs": [
        {
          "internalType": "string",
          "name": "",
          "type": "string"
        }
      ],
      "name": "emailExists",
      "outputs": [
        {
          "internalType": "bool",
          "name": "",
          "type": "bool"
        }
      ],
      "stateMutability": "view",
      "type": "function",
      "constant": true
    },
    {
      "inputs": [
        {
          "internalType": "uint256",
          "name": "",
          "type": "uint256"
        }
      ],
      "name": "recruiterKeys",
      "outputs": [
        {
          "internalType": "string",
          "name": "",
          "type": "string"
        }
      ],
      "stateMutability": "view",
      "type": "function",
      "constant": true
    },
    {
      "inputs": [
        {
          "internalType": "string",
          "name": "",
          "type": "string"
        }
      ],
      "name": "recruiters",
      "outputs": [
        {
          "internalType": "string",
          "name": "name",
          "type": "string"
        },
        {
          "internalType": "string",
          "name": "email",
          "type": "string"
        },
        {
          "internalType": "string",
          "name": "password",
          "type": "string"
        },
        {
          "internalType": "string",
          "name": "phone",
          "type": "string"
        },
        {
          "internalType": "string",
          "name": "company",
          "type": "string"
        },
        {
          "internalType": "string",
          "name": "admin",
          "type": "string"
        }
      ],
      "stateMutability": "view",
      "type": "function",
      "constant": true
    },
    {
      "inputs": [
        {
          "internalType": "uint256",
          "name": "",
          "type": "uint256"
        }
      ],
      "name": "verificationRecords",
      "outputs": [
        {
          "internalType": "string",
          "name": "recname",
          "type": "string"
        },
        {
          "internalType": "string",
          "name": "company",
          "type": "string"
        },
        {
          "internalType": "string",
          "name": "recemail",
          "type": "string"
        },
        {
          "internalType": "string",
          "name": "uid",
          "type": "string"
        },
        {
          "internalType": "string",
          "name": "vftime",
          "type": "string"
        }
      ],
      "stateMutability": "view",
      "type": "function",
      "constant": true
    },
    {
      "inputs": [
        {
          "internalType": "string",
          "name": "_name",
          "type": "string"
        },
        {
          "internalType": "string",
          "name": "_email",
          "type": "string"
        },
        {
          "internalType": "string",
          "name": "_password",
          "type": "string"
        },
        {
          "internalType": "string",
          "name": "_phone",
          "type": "string"
        },
        {
          "internalType": "string",
          "name": "_company",
          "type": "string"
        },
        {
          "internalType": "string",
          "name": "_admin",
          "type": "string"
        }
      ],
      "name": "registerRecruiter",
      "outputs": [],
      "stateMutability": "nonpayable",
      "type": "function"
    },
    {
      "inputs": [],
      "name": "getAllRecruiters",
      "outputs": [
        {
          "components": [
            {
              "internalType": "string",
              "name": "name",
              "type": "string"
            },
            {
              "internalType": "string",
              "name": "email",
              "type": "string"
            },
            {
              "internalType": "string",
              "name": "password",
              "type": "string"
            },
            {
              "internalType": "string",
              "name": "phone",
              "type": "string"
            },
            {
              "internalType": "string",
              "name": "company",
              "type": "string"
            },
            {
              "internalType": "string",
              "name": "admin",
              "type": "string"
            }
          ],
          "internalType": "struct RecruiterManagement.Recruiter[]",
          "name": "",
          "type": "tuple[]"
        }
      ],
      "stateMutability": "view",
      "type": "function",
      "constant": true
    },
    {
      "inputs": [
        {
          "internalType": "string",
          "name": "_email",
          "type": "string"
        },
        {
          "internalType": "string",
          "name": "_password",
          "type": "string"
        }
      ],
      "name": "recruiterLogin",
      "outputs": [
        {
          "internalType": "bool",
          "name": "",
          "type": "bool"
        }
      ],
      "stateMutability": "nonpayable",
      "type": "function"
    },
    {
      "inputs": [
        {
          "internalType": "string",
          "name": "_email",
          "type": "string"
        }
      ],
      "name": "getRecruiterByEmail",
      "outputs": [
        {
          "internalType": "string",
          "name": "",
          "type": "string"
        },
        {
          "internalType": "string",
          "name": "",
          "type": "string"
        },
        {
          "internalType": "string",
          "name": "",
          "type": "string"
        },
        {
          "internalType": "string",
          "name": "",
          "type": "string"
        },
        {
          "internalType": "string",
          "name": "",
          "type": "string"
        },
        {
          "internalType": "string",
          "name": "",
          "type": "string"
        }
      ],
      "stateMutability": "view",
      "type": "function",
      "constant": true
    },
    {
      "inputs": [
        {
          "internalType": "string",
          "name": "_email",
          "type": "string"
        },
        {
          "internalType": "string",
          "name": "_newAdmin",
          "type": "string"
        }
      ],
      "name": "updateAdmin",
      "outputs": [],
      "stateMutability": "nonpayable",
      "type": "function"
    },
    {
      "inputs": [
        {
          "internalType": "string",
          "name": "_recname",
          "type": "string"
        },
        {
          "internalType": "string",
          "name": "_company",
          "type": "string"
        },
        {
          "internalType": "string",
          "name": "_recemail",
          "type": "string"
        },
        {
          "internalType": "string",
          "name": "_uid",
          "type": "string"
        },
        {
          "internalType": "string",
          "name": "_vftime",
          "type": "string"
        }
      ],
      "name": "addVerificationRecord",
      "outputs": [],
      "stateMutability": "nonpayable",
      "type": "function"
    },
    {
      "inputs": [],
      "name": "getAllVerificationRecords",
      "outputs": [
        {
          "components": [
            {
              "internalType": "string",
              "name": "recname",
              "type": "string"
            },
            {
              "internalType": "string",
              "name": "company",
              "type": "string"
            },
            {
              "internalType": "string",
              "name": "recemail",
              "type": "string"
            },
            {
              "internalType": "string",
              "name": "uid",
              "type": "string"
            },
            {
              "internalType": "string",
              "name": "vftime",
              "type": "string"
            }
          ],
          "internalType": "struct RecruiterManagement.VerificationRecord[]",
          "name": "",
          "type": "tuple[]"
        }
      ],
      "stateMutability": "view",
      "type": "function",
      "constant": true
    }
  ],
  "bytecode": "0x608060405234801561001057600080fd5b506127c4806100206000396000f3fe608060405234801561001057600080fd5b50600436106100a95760003560e01c8063630d7d6a11610071578063630d7d6a14610164578063b24eea6214610182578063bfc87a84146101b2578063ce2f22f9146101e6578063d12634aa1461021b578063fada433814610237576100a9565b80630b87f3b0146100ae5780630ef722f3146100de5780631955f09b146100fa5780632be46c3c146101165780634bf77ff114610146575b600080fd5b6100c860048036038101906100c39190611b42565b61026c565b6040516100d59190612328565b60405180910390f35b6100f860048036038101906100f39190611c9d565b61032d565b005b610114600480360381019061010f9190611bae565b6104e2565b005b610130600480360381019061012b9190611b01565b6105d4565b60405161013d9190612328565b60405180910390f35b61014e61060a565b60405161015b91906122e4565b60405180910390f35b61016c610ad7565b6040516101799190612306565b60405180910390f35b61019c60048036038101906101979190611db6565b610e10565b6040516101a99190612343565b60405180910390f35b6101cc60048036038101906101c79190611db6565b610ebc565b6040516101dd959493929190612365565b60405180910390f35b61020060048036038101906101fb9190611b01565b6111aa565b604051610212969594939291906123db565b60405180910390f35b61023560048036038101906102309190611b42565b61152c565b005b610251600480360381019061024c9190611b01565b6115d6565b604051610263969594939291906123db565b60405180910390f35b6000818051906020012060008460405161028691906122b6565b90815260200160405180910390206002016040516102a4919061229f565b6040518091039020146102ec576040517f08c379a00000000000000000000000000000000000000000000000000000000081526004016102e390612466565b60405180910390fd5b7f30cb49943de8787672266551adead06e90cf391f3bbca6657c7f7fb9d0cf2fce8360405161031b9190612343565b60405180910390a16001905092915050565b6000808660405161033e91906122b6565b9081526020016040518091039020600101805461035a9061265e565b90501461039c576040517f08c379a0000000000000000000000000000000000000000000000000000000008152600401610393906124a6565b60405180910390fd5b60006040518060c00160405280888152602001878152602001868152602001858152602001848152602001838152509050806000876040516103de91906122b6565b908152602001604051809103902060008201518160000190805190602001906104089291906119ab565b5060208201518160010190805190602001906104259291906119ab565b5060408201518160020190805190602001906104429291906119ab565b50606082015181600301908051906020019061045f9291906119ab565b50608082015181600401908051906020019061047c9291906119ab565b5060a08201518160050190805190602001906104999291906119ab565b509050506002869080600181540180825580915050600190039060005260206000200160009091909190915090805190602001906104d89291906119ab565b5050505050505050565b60006040518060a00160405280878152602001868152602001858152602001848152602001838152509050600381908060018154018082558091505060019003906000526020600020906005020160009091909190915060008201518160000190805190602001906105559291906119ab565b5060208201518160010190805190602001906105729291906119ab565b50604082015181600201908051906020019061058f9291906119ab565b5060608201518160030190805190602001906105ac9291906119ab565b5060808201518160040190805190602001906105c99291906119ab565b505050505050505050565b6001818051602081018201805184825260208301602085012081835280955050505050506000915054906101000a900460ff1681565b60606000600280549050905060008167ffffffffffffffff811115610658577f4e487b7100000000000000000000000000000000000000000000000000000000600052604160045260246000fd5b60405190808252806020026020018201604052801561069157816020015b61067e611a31565b8152602001906001900390816106765790505b50905060005b82811015610ace576000600282815481106106db577f4e487b7100000000000000000000000000000000000000000000000000000000600052603260045260246000fd5b906000526020600020016040516106f291906122cd565b90815260200160405180910390206040518060c001604052908160008201805461071b9061265e565b80601f01602080910402602001604051908101604052809291908181526020018280546107479061265e565b80156107945780601f1061076957610100808354040283529160200191610794565b820191906000526020600020905b81548152906001019060200180831161077757829003601f168201915b505050505081526020016001820180546107ad9061265e565b80601f01602080910402602001604051908101604052809291908181526020018280546107d99061265e565b80156108265780601f106107fb57610100808354040283529160200191610826565b820191906000526020600020905b81548152906001019060200180831161080957829003601f168201915b5050505050815260200160028201805461083f9061265e565b80601f016020809104026020016040519081016040528092919081815260200182805461086b9061265e565b80156108b85780601f1061088d576101008083540402835291602001916108b8565b820191906000526020600020905b81548152906001019060200180831161089b57829003601f168201915b505050505081526020016003820180546108d19061265e565b80601f01602080910402602001604051908101604052809291908181526020018280546108fd9061265e565b801561094a5780601f1061091f5761010080835404028352916020019161094a565b820191906000526020600020905b81548152906001019060200180831161092d57829003601f168201915b505050505081526020016004820180546109639061265e565b80601f016020809104026020016040519081016040528092919081815260200182805461098f9061265e565b80156109dc5780601f106109b1576101008083540402835291602001916109dc565b820191906000526020600020905b8154815290600101906020018083116109bf57829003601f168201915b505050505081526020016005820180546109f59061265e565b80601f0160208091040260200160405190810160405280929190818152602001828054610a219061265e565b8015610a6e5780601f10610a4357610100808354040283529160200191610a6e565b820191906000526020600020905b815481529060010190602001808311610a5157829003601f168201915b505050505081525050828281518110610ab0577f4e487b7100000000000000000000000000000000000000000000000000000000600052603260045260246000fd5b60200260200101819052508080610ac690612690565b915050610697565b50809250505090565b60606003805480602002602001604051908101604052809291908181526020016000905b82821015610e0757838290600052602060002090600502016040518060a0016040529081600082018054610b2e9061265e565b80601f0160208091040260200160405190810160405280929190818152602001828054610b5a9061265e565b8015610ba75780601f10610b7c57610100808354040283529160200191610ba7565b820191906000526020600020905b815481529060010190602001808311610b8a57829003601f168201915b50505050508152602001600182018054610bc09061265e565b80601f0160208091040260200160405190810160405280929190818152602001828054610bec9061265e565b8015610c395780601f10610c0e57610100808354040283529160200191610c39565b820191906000526020600020905b815481529060010190602001808311610c1c57829003601f168201915b50505050508152602001600282018054610c529061265e565b80601f0160208091040260200160405190810160405280929190818152602001828054610c7e9061265e565b8015610ccb5780601f10610ca057610100808354040283529160200191610ccb565b820191906000526020600020905b815481529060010190602001808311610cae57829003601f168201915b50505050508152602001600382018054610ce49061265e565b80601f0160208091040260200160405190810160405280929190818152602001828054610d109061265e565b8015610d5d5780601f10610d3257610100808354040283529160200191610d5d565b820191906000526020600020905b815481529060010190602001808311610d4057829003601f168201915b50505050508152602001600482018054610d769061265e565b80601f0160208091040260200160405190810160405280929190818152602001828054610da29061265e565b8015610def5780601f10610dc457610100808354040283529160200191610def565b820191906000526020600020905b815481529060010190602001808311610dd257829003601f168201915b50505050508152505081526020019060010190610afb565b50505050905090565b60028181548110610e2057600080fd5b906000526020600020016000915090508054610e3b9061265e565b80601f0160208091040260200160405190810160405280929190818152602001828054610e679061265e565b8015610eb45780601f10610e8957610100808354040283529160200191610eb4565b820191906000526020600020905b815481529060010190602001808311610e9757829003601f168201915b505050505081565b60038181548110610ecc57600080fd5b9060005260206000209060050201600091509050806000018054610eef9061265e565b80601f0160208091040260200160405190810160405280929190818152602001828054610f1b9061265e565b8015610f685780601f10610f3d57610100808354040283529160200191610f68565b820191906000526020600020905b815481529060010190602001808311610f4b57829003601f168201915b505050505090806001018054610f7d9061265e565b80601f0160208091040260200160405190810160405280929190818152602001828054610fa99061265e565b8015610ff65780601f10610fcb57610100808354040283529160200191610ff6565b820191906000526020600020905b815481529060010190602001808311610fd957829003601f168201915b50505050509080600201805461100b9061265e565b80601f01602080910402602001604051908101604052809291908181526020018280546110379061265e565b80156110845780601f1061105957610100808354040283529160200191611084565b820191906000526020600020905b81548152906001019060200180831161106757829003601f168201915b5050505050908060030180546110999061265e565b80601f01602080910402602001604051908101604052809291908181526020018280546110c59061265e565b80156111125780601f106110e757610100808354040283529160200191611112565b820191906000526020600020905b8154815290600101906020018083116110f557829003601f168201915b5050505050908060040180546111279061265e565b80601f01602080910402602001604051908101604052809291908181526020018280546111539061265e565b80156111a05780601f10611175576101008083540402835291602001916111a0565b820191906000526020600020905b81548152906001019060200180831161118357829003601f168201915b5050505050905085565b6000818051602081018201805184825260208301602085012081835280955050505050506000915090508060000180546111e39061265e565b80601f016020809104026020016040519081016040528092919081815260200182805461120f9061265e565b801561125c5780601f106112315761010080835404028352916020019161125c565b820191906000526020600020905b81548152906001019060200180831161123f57829003601f168201915b5050505050908060010180546112719061265e565b80601f016020809104026020016040519081016040528092919081815260200182805461129d9061265e565b80156112ea5780601f106112bf576101008083540402835291602001916112ea565b820191906000526020600020905b8154815290600101906020018083116112cd57829003601f168201915b5050505050908060020180546112ff9061265e565b80601f016020809104026020016040519081016040528092919081815260200182805461132b9061265e565b80156113785780601f1061134d57610100808354040283529160200191611378565b820191906000526020600020905b81548152906001019060200180831161135b57829003601f168201915b50505050509080600301805461138d9061265e565b80601f01602080910402602001604051908101604052809291908181526020018280546113b99061265e565b80156114065780601f106113db57610100808354040283529160200191611406565b820191906000526020600020905b8154815290600101906020018083116113e957829003601f168201915b50505050509080600401805461141b9061265e565b80601f01602080910402602001604051908101604052809291908181526020018280546114479061265e565b80156114945780601f1061146957610100808354040283529160200191611494565b820191906000526020600020905b81548152906001019060200180831161147757829003601f168201915b5050505050908060050180546114a99061265e565b80601f01602080910402602001604051908101604052809291908181526020018280546114d59061265e565b80156115225780601f106114f757610100808354040283529160200191611522565b820191906000526020600020905b81548152906001019060200180831161150557829003601f168201915b5050505050905086565b6000808360405161153d91906122b6565b908152602001604051809103902060010180546115599061265e565b9050141561159c576040517f08c379a000000000000000000000000000000000000000000000000000000000815260040161159390612486565b60405180910390fd5b806000836040516115ad91906122b6565b908152602001604051809103902060050190805190602001906115d19291906119ab565b505050565b606080606080606080600080886040516115f091906122b6565b90815260200160405180910390206040518060c00160405290816000820180546116199061265e565b80601f01602080910402602001604051908101604052809291908181526020018280546116459061265e565b80156116925780601f1061166757610100808354040283529160200191611692565b820191906000526020600020905b81548152906001019060200180831161167557829003601f168201915b505050505081526020016001820180546116ab9061265e565b80601f01602080910402602001604051908101604052809291908181526020018280546116d79061265e565b80156117245780601f106116f957610100808354040283529160200191611724565b820191906000526020600020905b81548152906001019060200180831161170757829003601f168201915b5050505050815260200160028201805461173d9061265e565b80601f01602080910402602001604051908101604052809291908181526020018280546117699061265e565b80156117b65780601f1061178b576101008083540402835291602001916117b6565b820191906000526020600020905b81548152906001019060200180831161179957829003601f168201915b505050505081526020016003820180546117cf9061265e565b80601f01602080910402602001604051908101604052809291908181526020018280546117fb9061265e565b80156118485780601f1061181d57610100808354040283529160200191611848565b820191906000526020600020905b81548152906001019060200180831161182b57829003601f168201915b505050505081526020016004820180546118619061265e565b80601f016020809104026020016040519081016040528092919081815260200182805461188d9061265e565b80156118da5780601f106118af576101008083540402835291602001916118da565b820191906000526020600020905b8154815290600101906020018083116118bd57829003601f168201915b505050505081526020016005820180546118f39061265e565b80601f016020809104026020016040519081016040528092919081815260200182805461191f9061265e565b801561196c5780601f106119415761010080835404028352916020019161196c565b820191906000526020600020905b81548152906001019060200180831161194f57829003601f168201915b5050505050815250509050806000015181602001518260400151836060015184608001518560a001519650965096509650965096505091939550919395565b8280546119b79061265e565b90600052602060002090601f0160209004810192826119d95760008555611a20565b82601f106119f257805160ff1916838001178555611a20565b82800160010185558215611a20579182015b82811115611a1f578251825591602001919060010190611a04565b5b509050611a2d9190611a67565b5090565b6040518060c001604052806060815260200160608152602001606081526020016060815260200160608152602001606081525090565b5b80821115611a80576000816000905550600101611a68565b5090565b6000611a97611a92846124f7565b6124c6565b905082815260208101848484011115611aaf57600080fd5b611aba84828561261c565b509392505050565b600082601f830112611ad357600080fd5b8135611ae3848260208601611a84565b91505092915050565b600081359050611afb81612777565b92915050565b600060208284031215611b1357600080fd5b600082013567ffffffffffffffff811115611b2d57600080fd5b611b3984828501611ac2565b91505092915050565b60008060408385031215611b5557600080fd5b600083013567ffffffffffffffff811115611b6f57600080fd5b611b7b85828601611ac2565b925050602083013567ffffffffffffffff811115611b9857600080fd5b611ba485828601611ac2565b9150509250929050565b600080600080600060a08688031215611bc657600080fd5b600086013567ffffffffffffffff811115611be057600080fd5b611bec88828901611ac2565b955050602086013567ffffffffffffffff811115611c0957600080fd5b611c1588828901611ac2565b945050604086013567ffffffffffffffff811115611c3257600080fd5b611c3e88828901611ac2565b935050606086013567ffffffffffffffff811115611c5b57600080fd5b611c6788828901611ac2565b925050608086013567ffffffffffffffff811115611c8457600080fd5b611c9088828901611ac2565b9150509295509295909350565b60008060008060008060c08789031215611cb657600080fd5b600087013567ffffffffffffffff811115611cd057600080fd5b611cdc89828a01611ac2565b965050602087013567ffffffffffffffff811115611cf957600080fd5b611d0589828a01611ac2565b955050604087013567ffffffffffffffff811115611d2257600080fd5b611d2e89828a01611ac2565b945050606087013567ffffffffffffffff811115611d4b57600080fd5b611d5789828a01611ac2565b935050608087013567ffffffffffffffff811115611d7457600080fd5b611d8089828a01611ac2565b92505060a087013567ffffffffffffffff811115611d9d57600080fd5b611da989828a01611ac2565b9150509295509295509295565b600060208284031215611dc857600080fd5b6000611dd684828501611aec565b91505092915050565b6000611deb8383612161565b905092915050565b6000611dff838361220d565b905092915050565b6000611e1282612571565b611e1c81856125ac565b935083602082028501611e2e85612527565b8060005b85811015611e6a5784840389528151611e4b8582611ddf565b9450611e5683612592565b925060208a01995050600181019050611e32565b50829750879550505050505092915050565b6000611e878261257c565b611e9181856125bd565b935083602082028501611ea385612537565b8060005b85811015611edf5784840389528151611ec08582611df3565b9450611ecb8361259f565b925060208a01995050600181019050611ea7565b50829750879550505050505092915050565b611efa81612606565b82525050565b60008154611f0d8161265e565b611f1781866125ce565b94506001821660008114611f325760018114611f4357611f76565b60ff19831686528186019350611f76565b611f4c85612547565b60005b83811015611f6e57815481890152600182019150602081019050611f4f565b838801955050505b50505092915050565b6000611f8a82612587565b611f9481856125d9565b9350611fa481856020860161262b565b611fad81612766565b840191505092915050565b6000611fc382612587565b611fcd81856125ea565b9350611fdd81856020860161262b565b611fe681612766565b840191505092915050565b6000611ffc82612587565b61200681856125fb565b935061201681856020860161262b565b80840191505092915050565b6000815461202f8161265e565b61203981866125fb565b94506001821660008114612054576001811461206557612098565b60ff19831686528186019350612098565b61206e8561255c565b60005b8381101561209057815481890152600182019150602081019050612071565b838801955050505b50505092915050565b60006120ae6012836125ea565b91507f496e636f72726563742070617373776f726400000000000000000000000000006000830152602082019050919050565b60006120ee6013836125ea565b91507f526563727569746572206e6f7420666f756e64000000000000000000000000006000830152602082019050919050565b600061212e6018836125ea565b91507f456d61696c20616c7265616479207265676973746572656400000000000000006000830152602082019050919050565b600060c083016000830151848203600086015261217e8282611f7f565b915050602083015184820360208601526121988282611f7f565b915050604083015184820360408601526121b28282611f7f565b915050606083015184820360608601526121cc8282611f7f565b915050608083015184820360808601526121e68282611f7f565b91505060a083015184820360a08601526122008282611f7f565b9150508091505092915050565b600060a083016000830151848203600086015261222a8282611f7f565b915050602083015184820360208601526122448282611f7f565b9150506040830151848203604086015261225e8282611f7f565b915050606083015184820360608601526122788282611f7f565b915050608083015184820360808601526122928282611f7f565b9150508091505092915050565b60006122ab8284611f00565b915081905092915050565b60006122c28284611ff1565b915081905092915050565b60006122d98284612022565b915081905092915050565b600060208201905081810360008301526122fe8184611e07565b905092915050565b600060208201905081810360008301526123208184611e7c565b905092915050565b600060208201905061233d6000830184611ef1565b92915050565b6000602082019050818103600083015261235d8184611fb8565b905092915050565b600060a082019050818103600083015261237f8188611fb8565b905081810360208301526123938187611fb8565b905081810360408301526123a78186611fb8565b905081810360608301526123bb8185611fb8565b905081810360808301526123cf8184611fb8565b90509695505050505050565b600060c08201905081810360008301526123f58189611fb8565b905081810360208301526124098188611fb8565b9050818103604083015261241d8187611fb8565b905081810360608301526124318186611fb8565b905081810360808301526124458185611fb8565b905081810360a08301526124598184611fb8565b9050979650505050505050565b6000602082019050818103600083015261247f816120a1565b9050919050565b6000602082019050818103600083015261249f816120e1565b9050919050565b600060208201905081810360008301526124bf81612121565b9050919050565b6000604051905081810181811067ffffffffffffffff821117156124ed576124ec612737565b5b8060405250919050565b600067ffffffffffffffff82111561251257612511612737565b5b601f19601f8301169050602081019050919050565b6000819050602082019050919050565b6000819050602082019050919050565b60008190508160005260206000209050919050565b60008190508160005260206000209050919050565b600081519050919050565b600081519050919050565b600081519050919050565b6000602082019050919050565b6000602082019050919050565b600082825260208201905092915050565b600082825260208201905092915050565b600081905092915050565b600082825260208201905092915050565b600082825260208201905092915050565b600081905092915050565b60008115159050919050565b6000819050919050565b82818337600083830152505050565b60005b8381101561264957808201518184015260208101905061262e565b83811115612658576000848401525b50505050565b6000600282049050600182168061267657607f821691505b6020821081141561268a57612689612708565b5b50919050565b600061269b82612612565b91507fffffffffffffffffffffffffffffffffffffffffffffffffffffffffffffffff8214156126ce576126cd6126d9565b5b600182019050919050565b7f4e487b7100000000000000000000000000000000000000000000000000000000600052601160045260246000fd5b7f4e487b7100000000000000000000000000000000000000000000000000000000600052602260045260246000fd5b7f4e487b7100000000000000000000000000000000000000000000000000000000600052604160045260246000fd5b6000601f19601f8301169050919050565b61278081612612565b811461278b57600080fd5b5056fea264697066735822122006588403572e4525c922d3aa25965ef4d6deeb5f50c077de614b1510f2502b0b64736f6c63430008000033",
  "immutableReferences": {},
  "source": "// SPDX-License-Identifier: UNLICENSED\r\npragma solidity ^0.8.0;\r\n\r\ncontract RecruiterManagement {\r\n    struct Recruiter {\r\n        string name;\r\n        string email;\r\n        string password;\r\n        string phone;\r\n        string company;\r\n        string admin;\r\n    }\r\n\r\n    mapping(string => Recruiter) public recruiters;\r\n    mapping(string => bool) public emailExists;\r\n\r\n    event RecruiterRegistered(string email);\r\n    event RecruiterLoggedIn(string email);\r\n\r\n    string[] public recruiterKeys;\r\n\r\n    function registerRecruiter(\r\n        string memory _name,\r\n        string memory _email,\r\n        string memory _password,\r\n        string memory _phone,\r\n        string memory _company,\r\n        string memory _admin\r\n    ) external {\r\n        require(\r\n            bytes(recruiters[_email].email).length == 0,\r\n            \"Email already registered\"\r\n        );\r\n\r\n        Recruiter memory newRecruiter = Recruiter(\r\n            _name,\r\n            _email,\r\n            _password,\r\n            _phone,\r\n            _company,\r\n            _admin\r\n        );\r\n        recruiters[_email] = newRecruiter;\r\n        recruiterKeys.push(_email);\r\n    }\r\n\r\n    function getAllRecruiters() public view returns (Recruiter[] memory) {\r\n        uint256 count = recruiterKeys.length;\r\n        Recruiter[] memory allRecruiters = new Recruiter[](count);\r\n        for (uint256 i = 0; i < count; i++) {\r\n            allRecruiters[i] = recruiters[recruiterKeys[i]];\r\n        }\r\n        return allRecruiters;\r\n    }\r\n\r\n    function recruiterLogin(\r\n        string memory _email,\r\n        string memory _password\r\n    ) external returns (bool) {\r\n        require(\r\n            keccak256(bytes(recruiters[_email].password)) ==\r\n                keccak256(bytes(_password)),\r\n            \"Incorrect password\"\r\n        );\r\n        emit RecruiterLoggedIn(_email);\r\n        return true;\r\n    }\r\n\r\n    function getRecruiterByEmail(\r\n        string memory _email\r\n    )\r\n        external\r\n        view\r\n        returns (\r\n            string memory,\r\n            string memory,\r\n            string memory,\r\n            string memory,\r\n            string memory,\r\n            string memory\r\n        )\r\n    {\r\n        Recruiter memory recruiter = recruiters[_email];\r\n        return (\r\n            recruiter.name,\r\n            recruiter.email,\r\n            recruiter.password,\r\n            recruiter.phone,\r\n            recruiter.company,\r\n            recruiter.admin\r\n        );\r\n    }\r\n\r\n    function updateAdmin(\r\n        string memory _email,\r\n        string memory _newAdmin\r\n    ) external {\r\n        require(\r\n            bytes(recruiters[_email].email).length != 0,\r\n            \"Recruiter not found\"\r\n        );\r\n        recruiters[_email].admin = _newAdmin;\r\n    }\r\n\r\n    struct VerificationRecord {\r\n        string recname;\r\n        string company;\r\n        string recemail;\r\n        string uid;\r\n        string vftime;\r\n    }\r\n\r\n    VerificationRecord[] public verificationRecords;\r\n\r\n    function addVerificationRecord(\r\n        string memory _recname,\r\n        string memory _company,\r\n        string memory _recemail,\r\n        string memory _uid,\r\n        string memory _vftime\r\n    ) external {\r\n        VerificationRecord memory newRecord = VerificationRecord(\r\n            _recname,\r\n            _company,\r\n            _recemail,\r\n            _uid,\r\n            _vftime\r\n        );\r\n        verificationRecords.push(newRecord);\r\n    }\r\n\r\n    function getAllVerificationRecords()\r\n        public\r\n        view\r\n        returns (VerificationRecord[] memory)\r\n    {\r\n        return verificationRecords;\r\n    }\r\n}\r\n\r\ncontract EmployeeManagement {\r\n    struct Employee {\r\n        string name;\r\n        string email;\r\n        string password;\r\n        string phone;\r\n        string uid;\r\n    }\r\n\r\n    mapping(string => Employee) public employees;\r\n    mapping(string => bool) public emailExists;\r\n    mapping(string => bool) public loggedIn;\r\n    mapping(string => uint256) public loginTime;\r\n    mapping(string => string) public uidToEmail; // Mapping from UID to email\r\n    uint256 public employeeCount;\r\n\r\n    event EmployeeRegistered(string email);\r\n    event EmployeeLoggedIn(string email);\r\n    event LoginLogAdded(string email, uint256 loginTime);\r\n\r\n    string[] public employeeKeys;\r\n\r\n    function registerEmployee(\r\n        string memory _name,\r\n        string memory _email,\r\n        string memory _password,\r\n        string memory _phone,\r\n        string memory _uid\r\n    ) external {\r\n        require(\r\n            bytes(employees[_email].email).length == 0,\r\n            \"Email already registered\"\r\n        );\r\n\r\n        Employee memory newEmployee = Employee(\r\n            _name,\r\n            _email,\r\n            _password,\r\n            _phone,\r\n            _uid\r\n        );\r\n        employees[_email] = newEmployee;\r\n        employeeKeys.push(_email);\r\n\r\n        // Update uidToEmail mapping\r\n        uidToEmail[_uid] = _email;\r\n\r\n        emit EmployeeRegistered(_email);\r\n    }\r\n\r\n    function getAllEmployees() public view returns (Employee[] memory) {\r\n        uint256 count = employeeKeys.length;\r\n        Employee[] memory allEmployees = new Employee[](count);\r\n        for (uint256 i = 0; i < count; i++) {\r\n            allEmployees[i] = employees[employeeKeys[i]];\r\n        }\r\n        return allEmployees;\r\n    }\r\n\r\n    function employeeLogin(\r\n        string memory _email,\r\n        string memory _password\r\n    ) external {\r\n        require(\r\n            keccak256(bytes(employees[_email].password)) ==\r\n                keccak256(bytes(_password)),\r\n            \"Incorrect password\"\r\n        );\r\n\r\n        emit EmployeeLoggedIn(_email);\r\n    }\r\n\r\n    function addLoginLog(string memory _email, uint256 _loginTime) external {\r\n        loggedIn[_email] = true;\r\n        loginTime[_email] = _loginTime;\r\n        emit LoginLogAdded(_email, _loginTime);\r\n    }\r\n\r\n    function getEmployeeByEmail(\r\n        string memory _email\r\n    )\r\n        external\r\n        view\r\n        returns (\r\n            string memory,\r\n            string memory,\r\n            string memory,\r\n            string memory,\r\n            string memory\r\n        )\r\n    {\r\n        Employee memory employee = employees[_email];\r\n        return (\r\n            employee.name,\r\n            employee.email,\r\n            employee.password,\r\n            employee.phone,\r\n            employee.uid\r\n        );\r\n    }\r\n\r\n    function getEmployeeByUid(\r\n        string memory _uid\r\n    )\r\n        external\r\n        view\r\n        returns (\r\n            string memory,\r\n            string memory,\r\n            string memory,\r\n            string memory,\r\n            string memory\r\n        )\r\n    {\r\n        string memory email = uidToEmail[_uid];\r\n        Employee memory employee = employees[email];\r\n        return (\r\n            employee.name,\r\n            employee.email,\r\n            employee.password,\r\n            employee.phone,\r\n            employee.uid\r\n        );\r\n    }\r\n\r\n    function getEmailByUID(\r\n        string memory _uid\r\n    ) external view returns (string memory) {\r\n        return uidToEmail[_uid];\r\n    }\r\n}\r\n",
  "sourcePath": "/Users/hchauhan/Downloads/verified-hire/contracts/VerifiedHire.sol",
  "compiler": {
    "name": "solc",
    "version": "0.8.0+commit.c7dfd78e.Emscripten.clang"
  },
  "schemaVersion": "3.4.16",
  "updatedAt": "2024-06-03T20:19:32.775Z",
  "networkType": "ethereum",
  "devdoc": {
    "kind": "dev",
    "methods": {},
    "version": 1
  },
  "userdoc": {
    "kind": "user",
    "methods": {},
    "version": 1
  }
}